:100000000C945D000C9485000C9485000C94850084
:100010000C9485000C9485000C9485000C9485004C
:100020000C9485000C9485000C9485000C9485003C
:100030000C9485000C9485000C9485000C9485002C
:100040000C9471010C9485000C9456040C94920449
:100050000C9485000C9485000C9485000C9485000C
:100060000C9485000C94850000000007000201003C
:100070000003040600000000000000000102040864
:100080001020408001020408102001020408102002
:10009000040404040404040402020202020203032E
:1000A0000303030300000000250028002B000000CC
:1000B0000000240027002A004D0511241FBECFEFA9
:1000C000D8E0DEBFCDBF11E0A0E0B1E0E6E4FDE0A6
:1000D00002C005900D92A832B107D9F711E0A8E24D
:1000E000B1E001C01D92AC3DB107E1F710E0CAEBF1
:1000F000D0E004C02297FE010E949106C83BD107C0
:10010000C9F70E94AD030C94A1060C94000040E8CE
:1001100055E260E070E085E391E00C94CD04AF928D
:10012000BF92CF92DF92EF92FF920F931F938EE0D8
:100130000E94EF0090932B0180932A01BC01882735
:1001400077FD8095982F1F921F921F922FEF2F936C
:10015000A12CB12C6501EE24EA9413E0F12E00E00D
:1001600010E020E030E0A9010E94460270932901CE
:100170006093280189E00E94100161E071E085E34D
:1001800091E00E94C50260912A0170912B014AE022
:1001900050E085E391E00E948B036BE071E085E322
:1001A00091E00E94C50260912801709129014AE006
:1001B00050E085E391E00E9493030F900F900F9021
:1001C0000F9068EE73E080E090E01F910F91FF9038
:1001D000EF90DF90CF90BF90AF900C94E5018E3000
:1001E00008F08E5087702091000140E4249F900118
:1001F0001124822B80937C0080917A00806480930C
:100200007A0080917A0086FDFCCF209178003091B1
:100210007900932F80E0AC01422B9A01C901089527
:100220001F93CF93DF93182FEB0161E00E94C70566
:10023000209711F460E004C0CF3FD10539F461E0AC
:10024000812FDF91CF911F910C94FF05E12FF0E0FA
:10025000E859FF4FE491E330B9F028F4E13051F070
:10026000E230B1F50CC0E63019F1E73049F1E43085
:1002700079F514C084B5806884BDC7BD2EC084B52F
:10028000806284BDC8BD29C0809180008068809351
:100290008000D0938900C09388001FC080918000A7
:1002A000806280938000D0938B00C0938A0015C039
:1002B0008091B00080688093B000C093B3000DC0FF
:1002C0008091B00080628093B000C093B40005C0FC
:1002D000C038D1050CF0B3CFADCFDF91CF911F91D6
:1002E00008951F920F920FB60F9211242F933F93F0
:1002F0008F939F93AF93BF9380912C0190912D0189
:10030000A0912E01B0912F0130913401232F2D5F48
:100310002D3720F40196A11DB11D05C0232F2A57AA
:100320000296A11DB11D2093340180932C0190935E
:100330002D01A0932E01B0932F0180913001909157
:100340003101A0913201B09133010196A11DB11D7F
:100350008093300190933101A0933201B093330127
:10036000BF91AF919F918F913F912F910F900FBEB1
:100370000F901F9018950F931F939FB7F8940091BB
:10038000300110913101209132013091330186B555
:10039000A89B06C08F3F21F00F5F1F4F2F4F3F4F8D
:1003A0009FBF322F212F102F0027080F111D211D55
:1003B000311D42E0000F111F221F331F4A95D1F754
:1003C000B801C9011F910F910895CF92DF92EF926A
:1003D000FF92CF93DF936B017C010E94BB01EB0185
:1003E0000EC00E94BB016C1B7D0B683E734038F051
:1003F00081E0C81AD108E108F108C851DC4FC114E6
:10040000D104E104F10469F7DF91CF91FF90EF90FF
:10041000DF90CF900895789484B5826084BD84B5D0
:10042000816084BD85B5826085BD85B5816085BDEF
:10043000EEE6F0E0808181608083E1E8F0E0108208
:10044000808182608083808181608083E0E8F0E049
:10045000808181608083E1EBF0E080818460808333
:10046000E0EBF0E0808181608083EAE7F0E080816A
:1004700084608083808182608083808181608083CA
:100480008081806880831092C10008954F925F92AE
:100490006F927F92AF92BF92CF92DF92EF92FF92D4
:1004A0000F931F93CF93DF93CDB7DEB729013A01A6
:1004B000621B730B840B950B29893A894B895C89E4
:1004C0002A193B094C095D09298B3A8B4B8B5C8BB4
:1004D0009B01AC0169897A898B899C890E943606C7
:1004E000E418F50806091709A80197010E94680693
:1004F0002A0D3B1D4C1D5D1DB901CA01DF91CF9135
:100500001F910F91FF90EF90DF90CF90BF90AF9031
:100510007F906F905F904F900895CF92DF92EF920F
:10052000FF920F931F93CF93DF936C01EB017A013E
:10053000E60EF71E00E010E00BC06991D601ED91C8
:10054000FC910190F081E02DC6010995080F191F5B
:10055000CE15DF0591F7C801DF91CF911F910F9163
:10056000FF90EF90DF90CF900895DB010D90002079
:10057000E9F7AD0141505109461B570BDC01ED91E4
:10058000FC910280F381E02D09940C94B502DC010A
:10059000ED91FC910190F081E02D09940F931F9350
:1005A000CF93DF93EC016DE00E94C7028C016AE0FB
:1005B000CE010E94C7029C01200F311FC901DF91AB
:1005C000CF911F910F9108954F925F926F927F92FA
:1005D0009F92AF92BF92CF92DF92EF92FF920F93D2
:1005E0001F93CF93DF93CDB7DEB7A1970FB6F894E3
:1005F000DEBF0FBECDBF5C016A017B01922E19A246
:1006000081E0821710F08AE0982E8E010F5D1F4F57
:10061000492C512C612C712CC701B601A301920108
:100620000E9446068C2D929E8019112401501109BA
:100630008A3014F4805D01C0895CF801808369010F
:100640007A01C114D104E104F10431F7B801C50104
:100650000E94B502A1960FB6F894DEBF0FBECDBFC3
:10066000DF91CF911F910F91FF90EF90DF90CF908E
:10067000BF90AF909F907F906F905F904F90089544
:10068000CF92DF92EF92FF920F931F93CF93DF935E
:10069000EC016A017B012115310579F4E881F981CA
:1006A0000190F081E02D642FDF91CF911F910F9188
:1006B000FF90EF90DF90CF9009942A30310519F424
:1006C00077FD0EC02AE0B701A601CE01DF91CF91E0
:1006D0001F910F91FF90EF90DF90CF900C94E40268
:1006E0006DE20E94C7028C0144275527BA014C19BC
:1006F0005D096E097F092AE0CE010E94E402080F1D
:10070000191FC801DF91CF911F910F91FF90EF90BA
:10071000DF90CF9008959A01AB01662757FD609551
:10072000762F0C9440030F931F93CF93DF93EC012C
:100730009A01AB01662757FD6095762F0E94400312
:100740008C01CE010E94CE029801280F391FC901E9
:10075000DF91CF911F910F9108950E940B020E948B
:100760008700C9E8D4E00E948F002097E1F30E943F
:100770008904F9CFFC0184859585FC01E05CFF4F7D
:1007800020813181FC01EE5BFF4F80819181281B2C
:10079000390B2F733327C9010895FC018485958592
:1007A000FC01E05CFF4F40815181FC01EE5BFF4F9B
:1007B000208131814217530741F00190F081E02DF3
:1007C000E80FF91F208130E002C02FEF3FEFC90191
:1007D0000895FC0184859585FC01E05CFF4F408114
:1007E0005181FC01EE5BFF4F20813181421753079D
:1007F00081F0A081B181A80FB91F8C912081318136
:100800002F5F3F4F2F73332731832083282F30E012
:1008100002C02FEF3FEFC9010895FC01868597853F
:10082000FC01E05CFF4FDC01AE5BBF4F40815181BA
:100830002D913C91119742175307C1F70895CF931B
:10084000DF93FC0186859785DC01A05CBF4F2D916D
:100850003C9111972F5F3F4F2F733327EC01CE5BF5
:10086000DF4F4881598124173507D9F30D90BC918A
:10087000A02DA80FB91F6C93A685B785A05CBF4FAC
:1008800011963C932E93A689B7892C9181E090E034
:10089000058C02C0880F991F0A94E2F7282B2C932D
:1008A00081E090E0DF91CF91089508951F920F921B
:1008B0000FB60F9211242F933F934F938F939F93D3
:1008C000EF93FF934091C6008091D8019091D90198
:1008D00001968F7399272091DA013091DB018217FD
:1008E000930759F0E091D801F091D901E856FE4FF5
:1008F00040839093D9018093D801FF91EF919F910C
:100900008F914F913F912F910F900FBE0F901F909D
:10091000189585E391E00E94BA03892B11F00C949D
:10092000550408951F920F920FB60F9211242F9322
:100930003F938F939F93EF93FF9320919401309176
:10094000950180919601909197012817390731F40C
:100950008091C1008F7D8093C10014C0E091960109
:10096000F0919701EC5AFE4F208180919601909171
:10097000970101968F739927909397018093960121
:100980002093C600FF91EF919F918F913F912F91FE
:100990000F900FBE0F901F901895CF92DF92EF929D
:1009A000FF92CF93DF93EC016A017B01411581EE49
:1009B000580761057105F9F0EC89FD8981E090E047
:1009C0000E8C02C0880F991F0A94E2F7808360E0C2
:1009D00079E08DE390E0A70196010E944606215040
:1009E00031094109510956954795379527952115A4
:1009F00080E1380798F0EC89FD89108260E874E89E
:100A00008EE190E0A70196010E944606215031092F
:100A1000410951095695479537952795E889F989F0
:100A20003083EA89FB892083EE89FF89408181E058
:100A300090E09C010A8C02C0220F331F0A94E2F757
:100A4000422B4083EE89FF8940819C010B8C02C0C0
:100A5000220F331F0A94E2F7422B4083EE89FF896D
:100A600040819C010C8C02C0220F331F0A94E2F7D4
:100A7000422B4083EE89FF8920810D8C02C0880FB4
:100A8000991F0A94E2F7809582238083DF91CF91AA
:100A9000FF90EF90DF90CF90089510923801109260
:100AA000370188EE93E0A0E0B0E0809339019093A5
:100AB0003A01A0933B01B0933C018BE191E090930C
:100AC00036018093350188E991E09093420180934B
:100AD000410184E591E0909344018093430185ECCA
:100AE00090E0909346018093450184EC90E09093D0
:100AF00048018093470180EC90E090934A018093F5
:100B0000490181EC90E090934C0180934B0186EC7D
:100B100090E090934E0180934D0184E080934F01CB
:100B200083E08093500187E08093510185E08093BA
:100B3000520181E0809353010895833069F028F4D5
:100B40008130A1F0823011F514C08630B1F08730C9
:100B5000C1F08430D9F404C0809180008F7703C045
:100B6000809180008F7D80938000089584B58F7779
:100B700002C084B58F7D84BD08958091B0008F77C9
:100B800003C08091B0008F7D8093B0000895CF9313
:100B9000DF9390E0FC01E458FF4F4491FC01E057E3
:100BA000FF4F8491882341F190E0880F991FFC0149
:100BB000E255FF4F25913491D9018C559F4FFC018F
:100BC00085919491C82FD92F9FB7F8948C9161117A
:100BD00006C0409584238C938881842308C06230AA
:100BE00041F4242F209582238C938881842B888341
:100BF00002C0842B8C939FBFDF91CF9108950F93F8
:100C00001F93CF93DF931F92CDB7DEB7282F30E02D
:100C1000F901E859FF4F8491F901E458FF4F14910D
:100C2000F901E057FF4F04910023D1F0882321F010
:100C300069830E949D056981E02FF0E0EE0FFF1FA0
:100C4000EC55FF4F85919491DC019FB7F8948C91FE
:100C5000611103C01095812301C0812B8C939FBF2C
:100C60000F90DF91CF911F910F910895DB018F932A
:100C70009F930E948406BF91AF91A29F800D911D0A
:100C8000A39F900DB29F900D11240895A1E21A2EFA
:100C9000AA1BBB1BFD010DC0AA1FBB1FEE1FFF1F20
:100CA000A217B307E407F50720F0A21BB30BE40B70
:100CB000F50B661F771F881F991F1A9469F76095B7
:100CC0007095809590959B01AC01BD01CF01089571
:100CD000052E97FB16F4009407D057FD0DD00E9407
:100CE000460607FC09D07EF4909580957095619535
:100CF0007F4F8F4F9F4F0895509540953095219588
:100D00003F4F4F4F5F4F08950E949506A59F900D4E
:100D1000B49F900DA49F800D911D11240895EE0F96
:100D2000FF1F0590F491E02D0994A29FB001B39F9D
:100D3000C001A39F01D0B29F700D811D1124911D90
:060D40000895F894FFCFB6
:100D46000173656E736F72203D200009206F757404
:100D5600707574203D2000000000001F048D02BA4B
:080D660003E903CD030D0400B5
:00000001FF
