:100000000C945D000C9485000C9485000C94850084
:100010000C9485000C9485000C9485000C9485004C
:100020000C9485000C9485000C9485000C9485003C
:100030000C9485000C9485000C9485000C9485002C
:100040000C94B8010C9485000C941E050C945A0570
:100050000C9485000C9485000C9485000C9485000C
:100060000C9485000C94850000000007000201003C
:100070000003040600000000000000000102040864
:100080001020408001020408102001020408102002
:10009000040404040404040402020202020203032E
:1000A0000303030300000000250028002B000000CC
:1000B0000000240027002A00150611241FBECFEFE0
:1000C000D8E0DEBFCDBF11E0A0E0B1E0ECE4FDE0A0
:1000D00002C005900D92A031B107D9F711E0A0E15F
:1000E000B1E001C01D92A03CB107E1F710E0CAEBFE
:1000F000D0E004C02297FE010E94A006C83BD107B1
:10010000C9F70E94BD030C94A4060C94000040E8BB
:1001100055E260E070E089E191E00E94950561E0C0
:100120008DE00C9449014F925F926F927F928F9273
:100130009F92AF92BF92CF92DF92EF92FF920F9376
:100140001F93CF93DF9361E08DE00E94810168EE01
:1001500073E080E090E00E943E0260E08DE00E944B
:10016000810168EE73E080E090E00E943E02CFEFF4
:10017000D0E04CC089E191E00E947F042B013C015A
:1001800089E191E00E947F046B017C0189E191E0AB
:100190000E947F044B015C0189E191E00E94B1045F
:1001A0000A97A1F5B201C601D7FC0AC08F3F91059D
:1001B00019F014F08FEF90E07E01E81AF90A03C0FD
:1001C000EE24EA94F12C97FC0BC0C4018F3F9105FB
:1001D00019F014F08FEF90E08E01081B190B02C08C
:1001E0000FEF10E040E150E089E191E00E949B03B5
:1001F00040E150E0B70189E191E00E949B0340E1BA
:1002000050E0B80189E191E00E94A30389E191E007
:100210000E948204181619060CF4ACCFDF91CF911E
:100220001F910F91FF90EF90DF90CF90BF90AF9014
:100230009F908F907F906F905F904F900895833044
:1002400069F028F48130A1F0823011F514C08630B5
:10025000B1F08730C1F08430D9F404C080918000BF
:100260008F7703C0809180008F7D809380000895F8
:1002700084B58F7702C084B58F7D84BD0895809149
:10028000B0008F7703C08091B0008F7D8093B00065
:100290000895CF93DF9390E0FC01E458FF4F449121
:1002A000FC01E057FF4F8491882341F190E0880FD3
:1002B000991FFC01E255FF4F25913491D9018C55CE
:1002C0009F4FFC0185919491C82FD92F9FB7F89427
:1002D0008C91611106C0409584238C93888184237E
:1002E00008C0623041F4242F209582238C938881AA
:1002F000842B888302C0842B8C939FBFDF91CF9186
:1003000008950F931F93CF93DF931F92CDB7DEB75E
:10031000282F30E0F901E859FF4F8491F901E458A2
:10032000FF4F1491F901E057FF4F04910023D1F0E2
:10033000882321F069830E941F016981E02FF0E08A
:10034000EE0FFF1FEC55FF4F85919491DC019FB795
:10035000F8948C91611103C01095812301C0812B09
:100360008C939FBF0F90DF91CF911F910F910895B4
:100370001F920F920FB60F9211242F933F938F93DA
:100380009F93AF93BF938091100190911101A09121
:100390001201B091130130911801232F2D5F2D37D9
:1003A00020F40196A11DB11D05C0232F2A570296E6
:1003B000A11DB11D2093180180931001909311018C
:1003C000A0931201B0931301809114019091150133
:1003D000A0911601B09117010196A11DB11D809346
:1003E000140190931501A0931601B0931701BF91CA
:1003F000AF919F918F913F912F910F900FBE0F90D2
:100400001F9018950F931F938FB7F89400911001C8
:100410001091110120911201309113018FBFB80189
:10042000C9011F910F9108950F931F939FB7F894DF
:1004300000911401109115012091160130911701BE
:1004400086B5A89B06C08F3F21F00F5F1F4F2F4F2F
:100450003F4F9FBF322F212F102F0027080F111D54
:10046000211D311D42E0000F111F221F331F4A952D
:10047000D1F7B801C9011F910F910895CF92DF9272
:10048000EF92FF92CF93DF936B017C010E941402E5
:10049000EB010EC00E9414026C1B7D0B683E734082
:1004A00038F081E0C81AD108E108F108C851DC4FE2
:1004B000C114D104E104F10469F7DF91CF91FF90F9
:1004C000EF90DF90CF900895789484B5826084BDDA
:1004D00084B5816084BD85B5826085BD85B5816048
:1004E00085BDEEE6F0E0808181608083E1E8F0E0A8
:1004F0001082808182608083808181608083E0E8D7
:10050000F0E0808181608083E1EBF0E080818460B5
:100510008083E0EBF0E0808181608083EAE7F0E0B7
:10052000808184608083808182608083808181601B
:1005300080838081806880831092C1000895CF926B
:10054000DF92EF92FF920F931F93CF93DF936C0193
:10055000EB017A01E60EF71E00E010E00BC0699196
:10056000D601ED91FC910190F081E02DC601099535
:10057000080F191FCE15DF0591F7C801DF91CF9144
:100580001F910F91FF90EF90DF90CF900895DB01C6
:100590000D900020E9F7AD0141505109461B570B62
:1005A000DC01ED91FC910280F381E02D0994DC01E6
:1005B000ED91FC910190F081E02D09940F931F9330
:1005C000CF93DF93EC016DE00E94D7028C016AE0CB
:1005D000CE010E94D7029C01200F311FC901DF917B
:1005E000CF911F910F9108954F925F926F927F92DA
:1005F0009F92AF92BF92CF92DF92EF92FF920F93B2
:100600001F93CF93DF93CDB7DEB7A1970FB6F894C2
:10061000DEBF0FBECDBF5C016A017B01922E19A225
:1006200081E0821710F08AE0982E8E010F5D1F4F37
:10063000492C512C612C712CC701B601A3019201E8
:100640000E9470068C2D929E801911240150110970
:100650008A3014F4805D01C0895CF80180836901EF
:100660007A01C114D104E104F10431F7B801C501E4
:100670000E94C702A1960FB6F894DEBF0FBECDBF91
:10068000DF91CF911F910F91FF90EF90DF90CF906E
:10069000BF90AF909F907F906F905F904F90089524
:1006A000CF92DF92EF92FF920F931F93CF93DF933E
:1006B000EC016A017B012115310579F4E881F981AA
:1006C0000190F081E02D642FDF91CF911F910F9168
:1006D000FF90EF90DF90CF9009942A30310519F404
:1006E00077FD0EC02AE0B701A601CE01DF91CF91C0
:1006F0001F910F91FF90EF90DF90CF900C94F40238
:100700006DE20E94D7028C0144275527BA014C198B
:100710005D096E097F092AE0CE010E94F402080FEC
:10072000191FC801DF91CF911F910F91FF90EF909A
:10073000DF90CF9008959A01AB01662757FD609531
:10074000762F0C9450030F931F93CF93DF93EC01FC
:100750009A01AB01662757FD6095762F0E945003E2
:100760008C01CE010E94DE029801280F391FC901B9
:10077000DF91CF911F910F9108950E9464020E9412
:100780008700C1E5D5E00E9493002097E1F30E9425
:100790005105F9CF0F931F93CF93DF93EC010E9484
:1007A0000202688779878A879B87E881F9810084BC
:1007B000F185E02DCE0109959C0197FF15C00E949F
:1007C0000202088519852A853B85601B710B820B07
:1007D000930B0C811D812E813F8160177107820769
:1007E000930718F32FEF3FEFC901DF91CF911F91CE
:1007F0000F910895CF93DF93EC01CE010E94CA03BD
:100800009C0197FD0EC08D32910559F0C0970A9753
:1008100040F0E881F9810680F781E02DCE0109954D
:10082000ECCFC901DF91CF910895CF92DF92FF9273
:100830000F931F93CF93DF9300D000D0CDB7DEB7D7
:100840006C01062F0E94FA03FC0120E030E0A901B0
:1008500097FD47C0F12C112707FD1095E017F10710
:10086000E9F0ED32F105C1F0CF01C0970A97B0F47D
:10087000AAE0B0E00E9465069B01AC01CF01AA2767
:1008800097FDA095BA2F280F391F4A1F5B1F2053D1
:1008900031094109510902C0FF24F394D601ED91B9
:1008A000FC910680F781E02DC60129833A834B83B2
:1008B0005C830995C6010E94CA03FC01C097298187
:1008C0003A814B815C810A9748F2E017F10731F2D7
:1008D000FF2039F050954095309521953F4F4F4F6F
:1008E0005F4FB901CA010F900F900F900F90DF91E9
:1008F000CF911F910F91FF90DF90CF90089561E00D
:100900000C941504FC0184859585FC01E05CFF4F87
:1009100020813181FC01EE5BFF4F80819181281B9A
:10092000390B2F733327C9010895FC018485958500
:10093000FC01E05CFF4F40815181FC01EE5BFF4F09
:10094000208131814217530741F00190F081E02D61
:10095000E80FF91F208130E002C02FEF3FEFC901FF
:100960000895FC0184859585FC01E05CFF4F408182
:100970005181FC01EE5BFF4F20813181421753070B
:1009800081F0A081B181A80FB91F8C9120813181A4
:100990002F5F3F4F2F73332731832083282F30E081
:1009A00002C02FEF3FEFC9010895FC0186859785AE
:1009B000FC01E05CFF4FDC01AE5BBF4F4081518129
:1009C0002D913C91119742175307C1F70895CF938A
:1009D000DF93FC0186859785DC01A05CBF4F2D91DC
:1009E0003C9111972F5F3F4F2F733327EC01CE5B64
:1009F000DF4F4881598124173507D9F30D90BC91F9
:100A0000A02DA80FB91F6C93A685B785A05CBF4F1A
:100A100011963C932E93A689B7892C9181E090E0A2
:100A2000058C02C0880F991F0A94E2F7282B2C939B
:100A300081E090E0DF91CF91089508951F920F9289
:100A40000FB60F9211242F933F934F938F939F9341
:100A5000EF93FF934091C6008091BC019091BD013E
:100A600001968F7399272091BE013091BF018217A3
:100A7000930759F0E091BC01F091BD01E458FE4F9D
:100A800040839093BD018093BC01FF91EF919F91B2
:100A90008F914F913F912F910F900FBE0F901F900C
:100AA000189589E191E00E948204892B11F00C9441
:100AB0001D0508951F920F920FB60F9211242F93C8
:100AC0003F938F939F93EF93FF9320917801309101
:100AD000790180917A0190917B012817390731F4CF
:100AE0008091C1008F7D8093C10014C0E0917A0194
:100AF000F0917B01E85CFE4F208180917A0190911A
:100B00007B0101968F73992790937B0180937A01E3
:100B10002093C600FF91EF919F918F913F912F916C
:100B20000F900FBE0F901F901895CF92DF92EF920B
:100B3000FF92CF93DF93EC016A017B01411581EEB7
:100B4000580761057105F9F0EC89FD8981E090E0B5
:100B50000E8C02C0880F991F0A94E2F7808360E030
:100B600079E08DE390E0A70196010E947006215084
:100B70003109410951095695479537952795211512
:100B800080E1380798F0EC89FD89108260E874E80C
:100B90008EE190E0A70196010E9470062150310974
:100BA000410951095695479537952795E889F9895F
:100BB0003083EA89FB892083EE89FF89408181E0C7
:100BC00090E09C010A8C02C0220F331F0A94E2F7C6
:100BD000422B4083EE89FF8940819C010B8C02C02F
:100BE000220F331F0A94E2F7422B4083EE89FF89DC
:100BF00040819C010C8C02C0220F331F0A94E2F743
:100C0000422B4083EE89FF8920810D8C02C0880F22
:100C1000991F0A94E2F7809582238083DF91CF9118
:100C2000FF90EF90DF90CF90089510921C011092EA
:100C30001B0188EE93E0A0E0B0E080931D0190934B
:100C40001E01A0931F01B093200184E091E09093D6
:100C50001A01809319018CE791E09093260180930B
:100C6000250188E391E0909328018093270185EC8A
:100C700090E090932A018093290184EC90E0909376
:100C80002C0180932B0180EC90E090932E018093B7
:100C90002D0181EC90E09093300180932F0186EC40
:100CA00090E0909332018093310184E0809333018E
:100CB00083E08093340187E08093350185E0809361
:100CC000360181E08093370108950E949206A59F26
:100CD000900DB49F900DA49F800D911D1124089537
:100CE000A1E21A2EAA1BBB1BFD010DC0AA1FBB1F30
:100CF000EE1FFF1FA217B307E407F50720F0A21BA2
:100D0000B30BE40BF50B661F771F881F991F1A940E
:100D100069F760957095809590959B01AC01BD0138
:100D2000CF010895A29FB001B39FC001A39F01D03E
:100D3000B29F700D811D1124911D0895EE0FFF1FAC
:0C0D40000590F491E02D0994F894FFCF89
:100D4C0000000000E7049F028204B1049504D5045E
:00000001FF
