:100000000C9464000C948C000C948C000C948C0068
:100010000C948C000C948C000C948C000C948C0030
:100020000C948C000C948C000C948C000C94140296
:100030000C948C000C948C000C948C000C948C0010
:100040000C941D070C948C000C94BA0C0C94F60CB8
:100050000C948C000C948C000C948C000C948C00F0
:100060000C948C000C948C0000000007000201002E
:100070000003040600000000000000000102040864
:100080001020408001020408102001020408102002
:10009000040404040404040402020202020203032E
:1000A00003030303000000002300260029000000D2
:1000B0000000250028002B0000000000240027007D
:1000C0002A00F401B10D0C0211241FBECFEFD8E0BD
:1000D000DEBFCDBF11E0A0E0B1E0EEE4F6E202C089
:1000E00005900D92A038B107D9F712E0A0E8B1E071
:1000F00001C01D92A138B107E1F710E0C6ECD0E0D5
:1001000004C02297FE010E948B10C23CD107C9F7A0
:100110000E94C70B0C941A130C94000040E855E29F
:1001200060E070E086ED91E00C94310DCF92DF92AB
:10013000EF92FF92CF93DF93CDB7DEB765970FB6FF
:10014000F894DEBF0FBECDBF63E171E080E891E0BF
:100150000E94FA089AC066ED71E0CE0101960E94F5
:10016000040C60E871E0CE010F960E94F008BE0119
:100170006F5F7F4FCE010F960E945309BC0180E84C
:1001800091E00E94D908CE010F960E944B08CE0143
:1001900001960E944B0867E071E080E891E00E94C0
:1001A00069098823B1F06BE070E084EA91E00E9475
:1001B0006F0360E070E084EA91E00E94B60360EDB6
:1001C00077E080E090E00E94A30784EA91E00E943B
:1001D00075036DE071E080E891E00E946909882371
:1001E000B1F06BE070E084EA91E00E946F0364EB91
:1001F00070E084EA91E00E94B60360ED77E080E071
:1002000090E00E94A30784EA91E00E94750364E1F4
:1002100071E0CE0108960E94BC0827E030E040E083
:1002200050E060E871E0CE0101960E948B096CE21B
:1002300071E0CE0101960E946909F82ECE01019667
:100240000E944B08FF20C9F047E050E060E871E0F1
:10025000CE0101960E94D009CE0101960E94DC09D0
:100260006B017C01CE0101960E944B084AE050E0F0
:10027000B60186ED91E00E94020B86ED91E00E94AE
:100280004D0CCE0108960E944B0886ED91E00E942D
:100290001E0C181619060CF45ECF8EE00E94BD06E7
:1002A0009093A3018093A2018FE00E94BD069093DA
:1002B000A1018093A00164E371E086ED91E00E94CA
:1002C000200A6091A2017091A3014AE050E086EDFE
:1002D00091E00E94FA0A6DE371E086ED91E00E94E0
:1002E000200A6091A0017091A1014AE050E086EDE2
:1002F00091E00E94020B8AE991E00E945A05609306
:1003000096017093970180939801909399018AE9DF
:1003100091E00E9443056093920170939301809352
:100320009401909395018AE991E00E947105609390
:100330008E0170938F0180939001909391016BE4F3
:1003400071E086ED91E00E94200A40919601509163
:10035000970160919801709199012AE030E086ED53
:1003600091E00E94C50B69E571E086ED91E00E9485
:10037000200A4091920150919301609194017091F3
:1003800095012AE030E086ED91E00E94C50B6EE514
:1003900071E086ED91E00E94200A40918E0150911B
:1003A0008F01609190017091910122E030E086ED23
:1003B00091E00E94C50B6CE671E086ED91E00E9431
:1003C0003F0A6AE070E080E090E00E94A307659633
:1003D0000FB6F894DEBF0FBECDBFDF91CF91FF9077
:1003E000EF90DF90CF90089584EA91E00E94D202CE
:1003F0004DE050E06CE070E08AE991E00E94140466
:1004000063E171E087E891E00E94BC0863E171E07C
:1004100080E891E00C94BC0880E891E00E944B08D1
:1004200087E891E00C944B081F920F920FB60F9241
:1004300011242F933F934F935F936F937F938F93E9
:100440009F93AF93BF93EF93FF938091A80187FF92
:1004500005C010928500109284001AC02091A80156
:10046000332727FD30958091A70190E028173907A1
:100470007CF48091A801992787FD9095FC01EE0FEF
:10048000FF1FE80FF91FE755FE4F808186FD37C03B
:100490008091A8018F5F8093A8012091A801332744
:1004A00027FD30958091A70190E028173907CCF5FA
:1004B0008091A8018C30F4F134C08091A801992773
:1004C00087FD9095FC01EE0FFF1FE80FF91FE75520
:1004D000FE4F808161E08F730E945D0652C080E410
:1004E0009CE905C0809184009091850004969093CA
:1004F0008900809388008FEF8093A80142C080918B
:10050000A801992787FD9095FC01EE0FFF1FE80FCA
:10051000F91FE755FE4F808160E08F730E945D06F2
:10052000B7CF8091840090918500049680349C49D7
:10053000B0F2D8CF80918400909185002091A801DD
:10054000332727FD3095F901EE0FFF1FE20FF31F50
:10055000E755FE4F21813281820F931F90938900CE
:10056000809388008091A801992787FD9095FC01D0
:10057000EE0FFF1FE80FF91FE755FE4F808186FD44
:100580009CCFFF91EF91BF91AF919F918F917F9100
:100590006F915F914F913F912F910F900FBE0F90F0
:1005A0001F9018952091A7012C30A0F4FC01208306
:1005B000822F8F5F8093A701822F90E0FC01EE0FC6
:1005C000FF1FE80FF91FE755FE4F88EB9BE0928372
:1005D000818308952FEFFC0120830895DF92EF922D
:1005E000FF920F931F93CF93DF93EC01D62E7A01E6
:1005F000890188818C3008F065C061E08D2D0E94F2
:1006000025068881A82FB0E0FD01EE0FFF1FEA0F3D
:10061000FB1FE755FE4F2D2D2F739081907C922B61
:10062000908360E272E06E197F0977FF02C06D5F10
:100630007F4F7595679575956795698340E659E095
:10064000401B510B57FF02C04D5F5F4F55954795BB
:10065000559547954A836CE00E9433109CE0899F32
:10066000B001112420E030E0A901460F571FFA0124
:10067000EE0FFF1FE40FF51FE755FE4F908196FD2B
:1006800015C02F5F3F4F2C30310571F71DC0109200
:10069000800082E080938100109285001092840097
:1006A000B19A80916F00826080936F00888190E0A2
:1006B000FC01EE0FFF1FE80FF91FE755FE4F808189
:1006C00080648083888103C0882309F3EFCFDF91A2
:1006D000CF911F910F91FF90EF90DF90089520E64A
:1006E00039E040E252E00C94EE02FC01808190E09F
:1006F000FC01EE0FFF1FE80FF91FE755FE4F808149
:100700008F7B80830895FC0180818C3070F591810E
:1007100028E830E0291B310997FD3395220F331F5C
:10072000220F331F621773077CF0928128E532E0B5
:10073000291B310997FD3395220F331F220F331FD9
:10074000621773070CF49B014FB7F89490E0FC011B
:10075000EE0FFF1FE80FF91FE755FE4F225031093A
:10076000220F331F328321834FBF0895AF92BF9270
:10077000CF92DF92EF92FF920F931F93CF93DF936D
:10078000EC01603282E078070CF041C077FD04C0D4
:10079000653B710524F405C060E070E002C064EBC5
:1007A00070E0298188E890E0821B910927FD9395EC
:1007B000880F991F880F991F5C01CC24B7FCC09447
:1007C000DC2C882777FD8095982F2A8148E552E018
:1007D000421B510927FD5395440F551F440F551FC8
:1007E0008A01222717FD2095322F3F932F931F93C5
:1007F0000F9314EBE12EF12C00E010E020E030E04C
:10080000A9010E9404080F900F900F900F90CE0145
:10081000DF91CF911F910F91FF90EF90DF90CF90DC
:10082000BF90AF900C948303FC017183608353836A
:1008300042830895CF92DF92EF92FF920F931F931E
:10084000CF93DF93C62ED42E790100E010E0C0E0F4
:10085000D0E017C061E08D2D0E945D066AE070E077
:1008600080E090E00E94A307CC0FDD1F8C2D0E943A
:100870009406C80FD91F60E08D2D0E945D060F5FA2
:100880001F4F0E151F0534F3CE01DF91CF911F913D
:100890000F91FF90EF90DF90CF9008951F93CF932B
:1008A000DF93162FC42FD22F61E0842F0E942506DC
:1008B00061E08D2F0E94250661E08C2F0E945D066D
:1008C00061E08D2F0E945D0660E08C2F0E945D0626
:1008D00060E08D2F0E945D0661E08D2F0E945D0615
:1008E00061E08C2F0E945D0660E08D2F0E945D0606
:1008F000212F41E06D2F8C2F0E94DE0661E08D2FAD
:100900000E945D0660E08C2F0E9425068C2F0E94BD
:10091000940660E08D2F0E945D068C2FDF91CF91B1
:100920001F910C9494061F93CF93DF93162F60E0D2
:10093000812F0E942506C4E6D0E06AE070E080E0E6
:1009400090E00E94A307812F0E949406892B11F04A
:10095000219799F7DF91CF911F910895CF92DF9260
:10096000EF92FF920F931F93CF93DF938C01F62E9C
:10097000D72EE42EC52E60E08F2D0E94250661E063
:100980008E2D0E94250628E030E04E2D5C2D6F2D27
:100990007D2DC8010E941A04D82F80E0C82F61E085
:1009A0008F2D0E94250661E08F2D0E945D0660E07C
:1009B0008F2D0E945D0661E08E2D0E945D0660E035
:1009C0008E2D0E945D0660E08F2D0E94250628E096
:1009D00030E04E2D5C2D6F2D7D2DC8010E941A0434
:1009E000C82BD92BCE01DF91CF911F910F91FF9092
:1009F000EF90DF90CF900895CF93DF93D62FC42F41
:100A000061E08D2F0E94250661E08C2F0E94250653
:100A100061E08D2F0E945D0661E08C2F0E945D06D3
:100A200060E08C2FDF91CF910C945D060F931F93A4
:100A3000CF93DF93EC012A813B814881598163E0A8
:100A400070E00E944E0468817981CE010E94930477
:100A50004A815B8168817981CE010E94AE048C015C
:100A60004A815B8168817981CE010E94FC04B801D2
:100A7000882777FD8095982F0E94050FDF91CF91F1
:100A80001F910F9108950E9416050E94D20E88278B
:100A900077FD8095982F0E94050F2CEB34E743E9F2
:100AA0005CE30E94B50F20E030E040E252E40E9497
:100AB000010E08950E9416050E94D20E882777FD28
:100AC0008095982F0E94050F2AE037ED43E25CE302
:100AD0000E94B50F20E030E040E252E40E94010E97
:100AE00008956F927F928F929F92AF92BF92CF9212
:100AF000DF92EF92FF920F931F93CF93DF93EC015E
:100B00002A813B814881598165E070E00E944E0452
:100B100068817981CE010E9493044A815B8168815A
:100B20007981CE010E94AE048C014A815B8168818B
:100B30007981CE010E94FC04B801882777FD809559
:100B4000982F0E94050F6B017C0124E533EE45E2EE
:100B50005DE30E94B50F20E030E040E850E40E94E1
:100B6000010E4B015C0122EA37EE4BE356EBC70165
:100B7000B6010E94B50FA70196010E94B50F9B0117
:100B8000AC01C501B4010E94020E3B018C01CE01F3
:100B90000E945A0520E030E048EC51E40E94010E2A
:100BA0004B015C012CEA35EC47EA58E3C701B6017A
:100BB0000E94B50F2AE037ED43E25CE30E94020E8B
:100BC0009B01AC01C501B4010E94B50F262D372D44
:100BD000402F512F0E94020EDF91CF911F910F9154
:100BE000FF90EF90DF90CF90BF90AF909F908F904D
:100BF0007F906F900895833069F028F48130A1F0E0
:100C0000823011F514C08630B1F08730C1F08430E5
:100C1000D9F404C0809180008F7703C08091800058
:100C20008F7D80938000089584B58F7702C084B54E
:100C30008F7D84BD08958091B0008F7703C080912F
:100C4000B0008F7D8093B0000895CF93DF9390E044
:100C5000FC01E458FF4F4491FC01E057FF4F8491A1
:100C6000882341F190E0880F991FFC01E854FF4F61
:100C700025913491D90182559F4FFC018591949122
:100C8000C82FD92F9FB7F8948C91611106C0409559
:100C900084238C938881842308C0623041F4242FFC
:100CA000209582238C938881842B888302C0842B97
:100CB0008C939FBFDF91CF9108950F931F93CF9394
:100CC000DF931F92CDB7DEB7282F30E0F901E85946
:100CD000FF4F8491F901E458FF4F1491F901E05757
:100CE000FF4F04910023D1F0882321F069830E94F3
:100CF000FB056981E02FF0E0EE0FFF1FE255FF4F8B
:100D000085919491DC019FB7F8948C91611103C097
:100D10001095812301C0812B8C939FBF0F90DF9191
:100D2000CF911F910F910895CF93DF93282F30E03B
:100D3000F901E859FF4F8491F901E458FF4FD4912C
:100D4000F901E057FF4FC491CC2389F081110E9433
:100D5000FB05EC2FF0E0EE0FFF1FEC55FF4F8591E8
:100D60009491DC018C918D2321E030E011F420E09E
:100D700030E0C901DF91CF9108958E3008F08E5098
:100D800087702091060140E4249F90011124822B5A
:100D900080937C0080917A00806480937A008091B7
:100DA0007A0086FDFCCF2091780030917900932F56
:100DB00080E0AC01422B9A01C9010895BF92CF9205
:100DC000DF92EF92FF920F931F93CF93DF93C82E82
:100DD000D62EB42EC7E0D0E0022F10E087E0E82E38
:100DE000F12CB1100AC0F701EC1BFD0BB80102C0D9
:100DF00075956795EA95E2F707C0B8010C2E02C019
:100E0000759567950A94E2F7617077278C2D0E949B
:100E10005D0661E08D2D0E945D0660E08D2D0E94D3
:100E20005D062197F0F6DF91CF911F910F91FF9012
:100E3000EF90DF90CF90BF9008951F920F920FB662
:100E40000F9211242F933F938F939F93AF93BF9350
:100E50008091CD019091CE01A091CF01B091D001B0
:100E60003091D501232F2D5F2D3720F40196A11D40
:100E7000B11D05C0232F2A570296A11DB11D209335
:100E8000D5018093CD019093CE01A093CF01B09373
:100E9000D0018091D1019091D201A091D301B09164
:100EA000D4010196A11DB11D8093D1019093D2016F
:100EB000A093D301B093D401BF91AF919F918F9133
:100EC0003F912F910F900FBE0F901F9018950F9389
:100ED0001F938FB7F8940091CD011091CE0120910E
:100EE000CF013091D0018FBFB801C9011F910F917F
:100EF00008950F931F939FB7F8940091D10110911B
:100F0000D2012091D3013091D40186B5A89B06C0AF
:100F10008F3F21F00F5F1F4F2F4F3F4F9FBF322F4B
:100F2000212F102F0027080F111D211D311D42E018
:100F3000000F111F221F331F4A95D1F7B801C901B5
:100F40001F910F910895CF92DF92EF92FF92CF936E
:100F5000DF936B017C010E947907EB010EC00E94B8
:100F600079076C1B7D0B683E734038F081E0C81A2E
:100F7000D108E108F108C851DC4FC114D104E104E3
:100F8000F10469F7DF91CF91FF90EF90DF90CF9060
:100F90000895789484B5826084BD84B5816084BDF1
:100FA00085B5826085BD85B5816085BDEEE6F0E0E2
:100FB000808181608083E1E8F0E01082808182603E
:100FC0008083808181608083E0E8F0E080818160BF
:100FD0008083E1EBF0E0808184608083E0EBF0E0EF
:100FE000808181608083EAE7F0E080818460808393
:100FF000808182608083808181608083808180683D
:1010000080831092C10008954F925F926F927F92F9
:10101000AF92BF92CF92DF92EF92FF920F931F9306
:10102000CF93DF93CDB7DEB729013A01621B730B73
:10103000840B950B29893A894B895C892A193B09CC
:101040004C095D09298B3A8B4B8B5C8B9B01AC0166
:1010500069897A898B899C890E942310E418F50894
:1010600006091709A80197010E9461102A0D3B1D6E
:101070004C1D5D1DB901CA01DF91CF911F910F91E8
:10108000FF90EF90DF90CF90BF90AF907F906F90E8
:101090005F904F900895FC01808191810C942A11FA
:1010A000CF93DF93EC0188819981009711F00E9422
:1010B0002A11198218821D821C821B821A82DF91DA
:1010C000CF9108950F931F93CF93DF93EC018B0182
:1010D0006F5F7F4F888199810E94C611009731F020
:1010E000998388831B830A8381E001C080E0DF91BC
:1010F000CF911F910F910895CF93DF93EC018881D9
:101100009981892B31F08A819B818617970708F096
:101110000CC0CE010E946208882349F08C819D8119
:10112000892B19F4E881F981108281E001C080E007
:10113000DF91CF910895EF92FF920F931F93CF937A
:10114000DF93EC017B018A01BA010E947C088111C6
:1011500004C0CE010E94500807C01D830C83B70154
:10116000888199810E94C712CE01DF91CF911F9192
:101170000F91FF90EF900895DC0111961C921E9242
:1011800013961C921E92129715961C921E921497FB
:1011900016961C926115710559F0DB010D90002027
:1011A000E9F7AD0141505109461B570B0C949B08C0
:1011B0000895CF93DF93EC01FB018617970761F049
:1011C000608171816115710529F0448155810E940A
:1011D0009B0802C00E945008CE01DF91CF91089574
:1011E000FC011182108213821282158214821682EF
:1011F0000C94D908CF93DF93D82FC92F61157105AF
:1012000061F0DB010D900020E9F7AD01415051097B
:10121000461B570B0E949B0802C00E9450088D2F4E
:101220009C2FDF91CF910895EF92FF920F931F9320
:10123000CF93DF93EC017B010C811D81611571055A
:1012400011F480E016C04115510591F0040F151FEF
:10125000B8010E947C088823A1F3288139818C8100
:101260009D81B701820F931F0E94C7121D830C83BB
:1012700081E0DF91CF911F910F91FF90EF90089542
:10128000CF93DF9300D0CDB7DEB769831A8241E0F8
:1012900050E0BE016F5F7F4F0E9414090F900F90C6
:1012A000DF91CF910895CF93DF93D82FC92FFB0102
:1012B00044815581608171810E941409811104C0AB
:1012C0008D2F9C2F0E9450088D2F9C2FDF91CF9146
:1012D0000895DC0114962D913C911597232B39F438
:1012E00081E06115710511F0FB0108C00895DC0172
:1012F000ED91FC916115710529F481E090819923AC
:1013000049F007C0CF010E94BE129C0181E0232B4F
:1013100009F080E00895BF92CF92DF92EF92FF92A2
:101320000F931F93CF93DF936C017B01EA01890137
:101330002417350720F48D2FE901042F182F63E1BE
:1013400071E0C6010E94BC08D70114968D919C9152
:1013500015978C179D07C8F08017910708F48C012A
:10136000D701ED91FC911197E00FF11FB080108231
:101370006D917C916C0F7D1FC6010E94FA08D70108
:10138000ED91FC91E00FF11FB082C601DF91CF918A
:101390001F910F91FF90EF90DF90CF90BF90089535
:1013A000CF93DF93EC01FB01248135810E948B09EF
:1013B000CE01DF91CF910895FC018081918100974A
:1013C00011F00C948E1260E070E080E090E00895DF
:1013D000CF92DF92EF92FF920F931F93CF93DF9301
:1013E0006C01EB017A01E60EF71E00E010E00BC085
:1013F0006991D601ED91FC910190F081E02DC6013B
:101400000995080F191FCE15DF0591F7C801DF9167
:10141000CF911F910F91FF90EF90DF90CF900895A3
:10142000DB010D900020E9F7AD0141505109461B49
:10143000570BDC01ED91FC910280F381E02D0994C2
:101440000C94100ADC01ED91FC910190F081E02DEB
:1014500009940F931F93CF93DF93EC016DE00E94EB
:10146000220A8C016AE0CE010E94220A9C01200F10
:10147000311FC901DF91CF911F910F9108950F93F3
:101480001F93CF93DF93EC010E94100A8C01CE01D1
:101490000E94290A9801280F391FC901DF91CF91B5
:1014A0001F910F9108954F925F926F927F929F923A
:1014B000AF92BF92CF92DF92EF92FF920F931F9362
:1014C000CF93DF93CDB7DEB7A1970FB6F894DEBF09
:1014D0000FBECDBF5C016A017B01922E19A281E093
:1014E000821710F08AE0982E8E010F5D1F4F492C55
:1014F000512C612C712CC701B601A30192010E94ED
:101500003F108C2D929E80191124015011098A30B0
:1015100014F4805D01C0895CF801808369017A015F
:10152000C114D104E104F10431F7B801C5010E94EE
:10153000100AA1960FB6F894DEBF0FBECDBFDF91A3
:10154000CF911F910F91FF90EF90DF90CF90BF90C0
:10155000AF909F907F906F905F904F900895CF9243
:10156000DF92EF92FF920F931F93CF93DF93EC01E3
:101570006A017B012115310579F4E881F981019037
:10158000F081E02D642FDF91CF911F910F91FF909B
:10159000EF90DF90CF9009942A30310519F477FD50
:1015A0000EC02AE0B701A601CE01DF91CF911F91B5
:1015B0000F91FF90EF90DF90CF900C94530A6DE263
:1015C0000E94220A8C0144275527BA014C195D0953
:1015D0006E097F092AE0CE010E94530A080F191FE5
:1015E000C801DF91CF911F910F91FF90EF90DF9095
:1015F000CF9008959A01AB01662757FD6095762F2D
:101600000C94AF0A0F931F93CF93DF93EC019A01D1
:10161000AB01662757FD6095762F0E94AF0A8C01BB
:10162000CE010E94290A9801280F391FC901DF91B4
:10163000CF911F910F9108957F928F929F92AF92B9
:10164000BF92CF92DF92EF92FF920F931F93CF93AF
:10165000DF938C014A015B01F22E20E030E0A9010A
:10166000C501B4010E94660E87FF0AC06DE2C80181
:101670000E94220AEC01B7FAB094B7F8B09402C005
:10168000C0E0D0E0E12C60E070E080E09FE307C0C4
:1016900020E030E040E251E40E946A0EE394EF1053
:1016A000F7CF262F372F482F592FC501B4010E949D
:1016B000020E762E872E982EA92E0E94D70EB62EB9
:1016C000C72ED82EE92E0E94030F9B01AC01672D77
:1016D000782D892D9A2D0E94010EA62E972E882EE8
:1016E000792E2AE04B2D5C2D6D2D7E2DC8010E9498
:1016F000530AC80FD91FFF20B9F16EE671E0C80187
:101700000E94100AC80FD91F2FC020E030E040E22D
:1017100051E46A2D792D882D972D0E94B50F762ED4
:10172000C72ED82EE92E0E94D20E4B01AA2497FC78
:10173000A094BA2C2AE030E0B501A401C8010E94AF
:10174000AF0AC80FD91FC501B4010E94050F9B0144
:10175000AC01672D7C2D8D2D9E2D0E94010EA62E95
:10176000972E882E792EFA94F110CFCFCE01DF91EB
:10177000CF911F910F91FF90EF90DF90CF90BF908E
:10178000AF909F908F907F9008950C941C0B0E94B7
:10179000C9070E948E00CDEEDCE00E9496002097E3
:1017A000E1F30E94ED0CF9CF0F931F93CF93DF93DA
:1017B000EC010E946707688779878A879B87E881A1
:1017C000F9810680F781E02DCE0109959C0197FFF4
:1017D00015C00E946707088519852A853B85601B0F
:1017E000710B820B930B0C811D812E813F81601741
:1017F00071078207930718F32FEF3FEFC901DF91BD
:10180000CF911F910F9108950F931F93CF93DF9363
:10181000EC018B0163E171E00E94BC0804C0682FF9
:10182000CE010E944009C8010E94D40B97FFF7CF58
:10183000CE01DF91CF911F910F910895FC01848516
:101840009585FC01E05CFF4F20813181FC01EE5B5E
:10185000FF4F80819181281B390B2F733327C901DA
:101860000895FC0184859585FC01E05CFF4F408173
:101870005181FC01EE5BFF4F2081318142175307FC
:1018800041F00190F081E02DE80FF91F208130E058
:1018900002C02FEF3FEFC9010895FC0184859585B3
:1018A000FC01E05CFF4F40815181FC01EE5BFF4F8A
:1018B000208131814217530781F0A081B181A80FA7
:1018C000B91F8C91208131812F5F3F4F2F733327B8
:1018D00031832083282F30E002C02FEF3FEFC90172
:1018E0000895FC0186859785FC01E05CFF4FDC01D3
:1018F000AE5BBF4F408151812D913C9111974217B2
:101900005307C1F70895CF93DF93FC018685978530
:10191000DC01A05CBF4F2D913C9111972F5F3F4F91
:101920002F733327EC01CE5BDF4F48815981241799
:101930003507D9F30D90BC91A02DA80FB91F6C935A
:10194000A685B785A05CBF4F11963C932E93A689C0
:10195000B7892C9181E090E0058C02C0880F991F17
:101960000A94E2F7282B2C9381E090E0DF91CF914D
:10197000089508951F920F920FB60F9211242F937E
:101980003F934F938F939F93EF93FF934091C600A4
:101990008091790290917A0201968F739927209114
:1019A0007B0230917C028217930759F0E091790213
:1019B000F0917A02E75CFD4F408390937A02809326
:1019C0007902FF91EF919F918F914F913F912F91CC
:1019D0000F900FBE0F901F90189586ED91E00E941A
:1019E0001E0C892B11F00C94B90C08951F920F92C4
:1019F0000FB60F9211242F933F938F939F93EF93E2
:101A0000FF932091350230913602809137029091F8
:101A100038022817390731F48091C1008F7D8093F7
:101A2000C10014C0E0913702F0913802EB50FE4F34
:101A30002081809137029091380201968F73992707
:101A400090933802809337022093C600FF91EF9164
:101A50009F918F913F912F910F900FBE0F901F90EC
:101A60001895CF92DF92EF92FF92CF93DF93EC0124
:101A70006A017B01411581EE580761057105F9F096
:101A8000EC89FD8981E090E00E8C02C0880F991FDF
:101A90000A94E2F7808360E079E08DE390E0A701AB
:101AA00096010E943F102150310941095109569574
:101AB000479537952795211580E1380798F0EC89EF
:101AC000FD89108260E874E88EE190E0A70196013C
:101AD0000E943F10215031094109510956954795FF
:101AE00037952795E889F9893083EA89FB8920832E
:101AF000EE89FF89408181E090E09C010A8C02C060
:101B0000220F331F0A94E2F7422B4083EE89FF89AC
:101B100040819C010B8C02C0220F331F0A94E2F714
:101B2000422B4083EE89FF8940819C010C8C02C0CE
:101B3000220F331F0A94E2F7422B4083EE89FF897C
:101B400020810D8C02C0880F991F0A94E2F78095BE
:101B500082238083DF91CF91FF90EF90DF90CF9031
:101B600008951092D9011092D80188EE93E0A0E078
:101B7000B0E08093DA019093DB01A093DC01B09395
:101B8000DD0184E791E09093D7018093D60189E34A
:101B900092E09093E3018093E20185EF91E09093CE
:101BA000E5018093E40185EC90E09093E701809358
:101BB000E60184EC90E09093E9018093E80180ECE9
:101BC00090E09093EB018093EA0181EC90E0909398
:101BD000ED018093EC0186EC90E09093EF0180930F
:101BE000EE0184E08093F00183E08093F10187E0CF
:101BF0008093F20185E08093F30181E08093F4010A
:101C000008955058BB27AA270ED075C166D130F071
:101C10006BD120F031F49F3F11F41EF45BC10EF440
:101C2000E095E7FB51C1E92F77D180F3BA1762073E
:101C300073078407950718F071F49EF58FC10EF4B1
:101C4000E0950B2EBA2FA02D0B01B90190010C01CC
:101C5000CA01A0011124FF27591B99F0593F50F4E4
:101C6000503E68F11A16F040A22F232F342F44273C
:101C7000585FF3CF469537952795A795F040539534
:101C8000C9F77EF41F16BA0B620B730B840BBAF004
:101C90009150A1F0FF0FBB1F661F771F881FC2F76F
:101CA0000EC0BA0F621F731F841F48F48795779583
:101CB0006795B795F7959E3F08F0B3CF9395880F3A
:101CC00008F09927EE0F979587950895D9D008F4D5
:101CD00081E008950CD00FC107D140F0FED030F064
:101CE00021F45F3F19F0F0C0511139C1F3C014D194
:101CF00098F39923C9F35523B1F3951B550BBB27D3
:101D0000AA2762177307840738F09F5F5F4F220F7F
:101D1000331F441FAA1FA9F333D00E2E3AF0E0E878
:101D200030D091505040E695001CCAF729D0FE2FC4
:101D300027D0660F771F881FBB1F26173707480756
:101D4000AB07B0E809F0BB0B802DBF01FF2793580C
:101D50005F4F2AF09E3F510568F0B6C000C15F3F5B
:101D6000ECF3983EDCF3869577956795B795F795F4
:101D70009F5FC9F7880F911D9695879597F90895EC
:101D8000E1E0660F771F881FBB1F62177307840788
:101D9000BA0720F0621B730B840BBA0BEE1F88F797
:101DA000E095089504D06894B111D9C00895BCD0CD
:101DB00088F09F5790F0B92F9927B751A0F0D1F034
:101DC000660F771F881F991F1AF0BA95C9F712C0BE
:101DD000B13081F0C3D0B1E00895C0C0672F782F33
:101DE0008827B85F39F0B93FCCF38695779567952A
:101DF000B395D9F73EF490958095709561957F4F96
:101E00008F4F9F4F0895E89409C097FB3EF490953B
:101E10008095709561957F4F8F4F9F4F9923A9F0C3
:101E2000F92F96E9BB279395F69587957795679552
:101E3000B795F111F8CFFAF4BB0F11F460FF1BC096
:101E40006F5F7F4F8F4F9F4F16C0882311F096E929
:101E500011C0772321F09EE8872F762F05C06623D7
:101E600071F096E8862F70E060E02AF09A95660F90
:101E7000771F881FDAF7880F9695879597F9089549
:101E8000990F0008550FAA0BE0E8FEEF161617068B
:101E9000E807F907C0F012161306E407F50798F0F3
:101EA000621B730B840B950B39F40A2661F0232B0C
:101EB000242B252B21F408950A2609F4A140A69588
:101EC0008FEF811D811D089597F99F6780E870E06D
:101ED00060E008959FEF80EC089500240A941616A0
:101EE000170618060906089500240A941216130608
:101EF000140605060895092E0394000C11F4882396
:101F000052F0BB0F40F4BF2B11F460FF04C06F5FB1
:101F10007F4F8F4F9F4F089557FD9058440F551F87
:101F200059F05F3F71F04795880F97FB991F61F05B
:101F30009F3F79F087950895121613061406551FD2
:101F4000F2CF4695F1DF08C0161617061806991F3E
:101F5000F1CF86957105610508940895E894BB2733
:101F600066277727CB0197F908950BD0C4CFB5DF4B
:101F700028F0BADF18F0952309F0A6CFABCF1124D3
:101F8000EECFCADFA0F3959FD1F3950F50E0551F18
:101F9000629FF001729FBB27F00DB11D639FAA27BE
:101FA000F00DB11DAA1F649F6627B00DA11D661F0D
:101FB000829F2227B00DA11D621F739FB00DA11D2E
:101FC000621F839FA00D611D221F749F3327A00DE8
:101FD000611D231F849F600D211D822F762F6A2F84
:101FE00011249F5750408AF0E1F088234AF0EE0F09
:101FF000FF1FBB1F661F771F881F91505040A9F716
:102000009E3F510570F060CFAACF5F3FECF3983E42
:10201000DCF3869577956795B795F795E7959F5F7C
:10202000C1F7FE2B880F911D9695879597F9089516
:102030000E947D10A59F900DB49F900DA49F800DD0
:10204000911D11240895DB018F939F930E94181016
:10205000BF91AF91A29F800D911DA39F900DB29F44
:10206000900D11240895991B79E004C0991F9617CB
:1020700008F0961B881F7A95C9F780950895A1E20C
:102080001A2EAA1BBB1BFD010DC0AA1FBB1FEE1FF2
:10209000FF1FA217B307E407F50720F0A21BB30B3D
:1020A000E40BF50B661F771F881F991F1A9469F7B9
:1020B00060957095809590959B01AC01BD01CF0115
:1020C0000895052E97FB16F4009407D057FD0DD008
:1020D0000E943F1007FC09D07EF490958095709582
:1020E00061957F4F8F4F9F4F089550954095309544
:1020F00021953F4F4F4F5F4F0895A29FB001B39F6F
:10210000C001A39F01D0B29F700D811D1124911DAC
:102110000895EE0FFF1F0590F491E02D09940F93A1
:102120001F93CF93DF938230910510F482E090E00B
:10213000E0917F02F091800220E030E0C0E0D0E04A
:1021400023C04081518148175907A8F04817590703
:1021500061F482819381209719F09B838A832EC03A
:102160009093800280937F0229C02115310529F0C8
:102170004217530710F0A90102C0BE01DF0102811E
:102180001381EF019A01F8013097D9F62115310535
:1021900009F1281B390B2430310590F412968D91EA
:1021A0009C9113976115710521F0FB019383828344
:1021B00004C09093800280937F02FD01329644C058
:1021C000FD01E20FF31F81939193225031092D936A
:1021D0003C933AC020917D0230917E02232B41F442
:1021E000209102013091030130937E0220937D0201
:1021F00020910001309101012115310541F42DB7E5
:102200003EB74091040150910501241B350BE0912C
:102210007D02F0917E02E217F307A0F42E1B3F0B24
:102220002817390778F0AC014E5F5F4F2417350748
:1022300048F04E0F5F1F50937E0240937D028193C2
:10224000919302C0E0E0F0E0CF01DF91CF911F91C8
:102250000F910895EF92FF920F931F93CF93DF9307
:10226000009709F48EC0DC01129713961C921E92FF
:102270001297E0907F02F0908002E114F10489F45B
:102280002D913C911197280F391F80917D029091DB
:102290007E028217930789F5B0937E02A0937D0298
:1022A00070C0E70120E030E001C0EA01CA17DB0797
:1022B00038F44A815B819E0141155105B1F722C076
:1022C000AC0142505109FA01D383C28300811181CC
:1022D000BC01600F711F6C177D0761F46881798103
:1022E000600F711F6E5F7F4F718360836A817B8196
:1022F000738362832115310529F4B0938002A09382
:102300007F023FC0F901B383A283E901499159914A
:10231000C40FD51FAC17BD0771F4DC019E918E91DF
:10232000840F951F02969183808312968D919C91C4
:10233000139793838283A0E0B0E002C0D7017C01B1
:10234000F701828193810097C9F7C7010296208126
:102350003181820F931F20917D0230917E022817D8
:10236000390779F4109729F41092800210927F02B5
:1023700004C013961C921E921297F0927E02E09275
:102380007D02CDB7DEB7E6E00C940B13A0E0B0E021
:10239000ECECF1E10C94E912EC01009729F4CB018B
:1023A0000E948F10EC01B4C0DC01A60FB71FFC0126
:1023B0003297AE17BF0718F4C0E0D0E0A9C0008183
:1023C000118106171707B0F00530110508F4A0C0F9
:1023D000C80104978617970708F49AC0025011099C
:1023E000061B170B0D931D9371836083CD010E9413
:1023F0002A118EC06B01C01AD10A7C01E00EF11EB9
:10240000E0917F02F091800220E030E080E090E0F7
:1024100048C0EE15FF05D1F580809180540142E05F
:10242000A40EB11CAC14BD0488F17401EC18FD08B5
:10243000670122E0C20ED11C9E012250310945E005
:10244000C416D10478F04281538113965C934E9365
:1024500012971196FC92EE92F901718360833A2FE4
:102460002B2F09C00E5F1F4F080D191DD9010D93A9
:102470001C9332812381009721F0FC013283238356
:1024800047C030937F022093800242C080819181B7
:102490002817390708F49C0152814381CF01E52FA9
:1024A000F42F309709F0B5CF80917D0290917E0294
:1024B0008E159F05F1F426173707D8F48091000197
:1024C00090910101009741F48DB79EB720910401CE
:1024D00030910501821B930BA817B90708F06CCF48
:1024E000B0937E02A0937D02FE01329771836083D8
:1024F0000FC0CB010E948F107C01009709F45CCFC4
:10250000A801BE010E94B512CE010E942A11E70166
:10251000CE01CDB7DEB7ECE00C9405131F93FC01A0
:1025200099278827BC01E89411911032E9F31930FA
:1025300010F01E30C8F31B3251F01D3249F468947C
:1025400006C00E94CE12610F711D811D911D119157
:1025500010531A30B0F33EF49095809570956195C4
:102560007F4F8F4F9F4F1F910895FB01DC0102C0E9
:1025700001900D9241505040D8F70895FB01DC01C5
:102580008D91019080190110D9F3990B0895FB01E9
:10259000DC0101900D920020E1F70895592F482F9A
:1025A000372F262F660F771F881F991F660F771FFB
:1025B000881F991F620F731F841F951F660F771F57
:1025C000881F991F08952F923F924F925F926F92AA
:1025D0007F928F929F92AF92BF92CF92DF92EF92B3
:1025E000FF920F931F93CF93DF93CDB7DEB7CA1B34
:1025F000DB0B0FB6F894DEBF0FBECDBF09942A885F
:10260000398848885F846E847D848C849B84AA8406
:10261000B984C884DF80EE80FD800C811B81AA8193
:10262000B981CE0FD11D0FB6F894DEBF0FBECDBF5E
:10263000ED01089510E0C6ECD0E004C0FE010E9458
:0E2640008B102296C83CD107C9F7F894FFCF43
:10264E00000081022000014F70656E0A00436C6F1E
:10265E0073650A00436F6E74656E742D54797065E0
:10266E003A20746578742F68746D6C0052657065CD
:10267E0061743A006C69676874203D200009206D12
:10268E006F697374757265203D200054656D7065B9
:10269E007261747572653A200043202F2000462E19
:1026AE002048756D69646974793A200025002E0002
:1026BE0000000000830CE8091E0C4D0C310C710C4F
:00000001FF
