:100000000C945E000C9486000C9486000C94860080
:100010000C9486000C9486000C9486000C94860048
:100020000C9486000C9486000C9486000C94D300EB
:100030000C9486000C9486000C9486000C94860028
:100040000C9463070C9486000C941C060C945806C0
:100050000C9486000C9486000C9486000C94860008
:100060000C9486000C94860000000007000201003A
:100070000003040600000000000000000102040864
:100080001020408001020408102001020408102002
:10009000040404040404040402020202020203032E
:1000A0000303030300000000250028002B000000CC
:1000B0000000240027002A00CF00130711241FBED0
:1000C000CFEFD8E0DEBFCDBF11E0A0E0B1E0E6EEBB
:1000D000F0E102C005900D92A031B107D9F711E00F
:1000E000A0E1B1E001C01D92A93EB107E1F710E027
:1000F000CCEBD0E004C02297FE010E946D08C83B03
:10010000D107C9F70E94BB040C9471080C9400003D
:100110006AE070E080E191E00E942E0240E855E242
:1001200060E070E089E391E00C949306CF93DF9355
:100130002CC089E391E00E947D05D62FC72F89E36B
:1001400091E00E94AF050A9701F540E150E06D2F64
:100150007C2F89E391E00E94A1048D2F9C2F853B89
:10016000910514F084EB90E0EC0197FF02C0C0E031
:10017000D0E0BE0180E191E00E94670240E150E0E2
:10018000BE0189E391E00E94A10489E391E00E940D
:100190008005181619066CF2DF91CF91089580E161
:1001A00091E00C9491011F920F920FB60F921124BF
:1001B0002F933F934F935F936F937F938F939F936F
:1001C000AF93BF93EF93FF938091140187FF05C016
:1001D00010928500109284001AC0209114013327D8
:1001E00027FD30958091130190E0281739077CF4A2
:1001F00080911401992787FD9095FC01EE0FFF1F58
:10020000E80FF91FEB5EFE4F808186FD37C08091BD
:1002100014018F5F8093140120911401332727FD6F
:1002200030958091130190E028173907CCF5809123
:1002300014018C30F4F134C080911401992787FDAA
:100240009095FC01EE0FFF1FE80FF91FEB5EFE4FCC
:10025000808161E08F730E94270352C080E49CE993
:1002600005C0809184009091850004969093890048
:10027000809388008FEF8093140142C08091140115
:10028000992787FD9095FC01EE0FFF1FE80FF91FDE
:10029000EB5EFE4F808160E08F730E942703B7CF33
:1002A0008091840090918500049680349C49B0F23E
:1002B000D8CF80918400909185002091140133273C
:1002C00027FD3095F901EE0FFF1FE20FF31FEB5EE4
:1002D000FE4F21813281820F931F9093890080937A
:1002E000880080911401992787FD9095FC01EE0FFD
:1002F000FF1FE80FF91FEB5EFE4F808186FD9CCF4C
:10030000FF91EF91BF91AF919F918F917F916F91ED
:100310005F914F913F912F910F900FBE0F901F90C3
:100320001895209113012C30A0F4FC012083822F1A
:100330008F5F80931301822F90E0FC01EE0FFF1F6F
:10034000E80FF91FEB5EFE4F88EB9BE09283818301
:1003500008952FEFFC0120830895DF92EF92FF9222
:100360000F931F93CF93DF93EC01D62E7A0189016F
:1003700088818C3008F065C061E08D2D0E94EF020D
:100380008881A82FB0E0FD01EE0FFF1FEA0FFB1FD1
:10039000EB5EFE4F2D2D2F739081907C922B9083DE
:1003A00060E272E06E197F0977FF02C06D5F7F4FD8
:1003B0007595679575956795698340E659E0401B8B
:1003C000510B57FF02C04D5F5F4F559547955595AF
:1003D00047954A836CE00E9415089CE0899FB00114
:1003E000112420E030E0A901460F571FFA01EE0F5B
:1003F000FF1FE40FF51FEB5EFE4F908196FD15C0C9
:100400002F5F3F4F2C30310571F71DC010928000D7
:1004100082E0809381001092850010928400B19A4E
:1004200080916F00826080936F00888190E0FC0172
:10043000EE0FFF1FE80FF91FEB5EFE4F8081806417
:100440008083888103C0882309F3EFCFDF91CF91A8
:100450001F910F91FF90EF90DF90089520E639E013
:1004600040E252E00C94AD01FC0180818C3070F5CB
:10047000918128E830E0291B310997FD3395220F3F
:10048000331F220F331F621773077CF0928128E518
:1004900032E0291B310997FD3395220F331F220FBC
:1004A000331F621773070CF49B014FB7F89490E069
:1004B000FC01EE0FFF1FE80FF91FEB5EFE4F22500D
:1004C0003109220F331F328321834FBF0895AF922A
:1004D000BF92CF92DF92EF92FF920F931F93CF9331
:1004E000DF93EC01603282E078070CF041C077FDC9
:1004F00004C0653B710524F405C060E070E002C0F3
:1005000064EB70E0298188E890E0821B910927FD67
:100510009395880F991F880F991F5C01CC24B7FC15
:10052000C094DC2C882777FD8095982F2A8148E598
:1005300052E0421B510927FD5395440F551F440FAC
:10054000551F8A01222717FD2095322F3F932F93A5
:100550001F930F9314EBE12EF12C00E010E020E04C
:1005600030E0A9010E945E030F900F900F900F9052
:10057000CE01DF91CF911F910F91FF90EF90DF900F
:10058000CF90BF90AF900C943402833069F028F480
:100590008130A1F0823011F514C08630B1F087307F
:1005A000C1F08430D9F404C0809180008F7703C0FB
:1005B000809180008F7D80938000089584B58F772F
:1005C00002C084B58F7D84BD08958091B0008F777F
:1005D00003C08091B0008F7D8093B0000895CF93C9
:1005E000DF9390E0FC01E458FF4F4491FC01E05799
:1005F000FF4F8491882341F190E0880F991FFC01FF
:10060000E255FF4F25913491D9018C559F4FFC0144
:1006100085919491C82FD92F9FB7F8948C9161112F
:1006200006C0409584238C938881842308C062305F
:1006300041F4242F209582238C938881842B8883F6
:1006400002C0842B8C939FBFDF91CF9108950F93AD
:100650001F93CF93DF931F92CDB7DEB7282F30E0E3
:10066000F901E859FF4F8491F901E458FF4F1491C3
:10067000F901E057FF4F04910023D1F0882321F0C6
:1006800069830E94C5026981E02FF0E0EE0FFF1F31
:10069000EC55FF4F85919491DC019FB7F8948C91B4
:1006A000611103C01095812301C0812B8C939FBFE2
:1006B0000F90DF91CF911F910F9108954F925F920C
:1006C0006F927F92AF92BF92CF92DF92EF92FF92A2
:1006D0000F931F93CF93DF93CDB7DEB729013A0174
:1006E000621B730B840B950B29893A894B895C89B2
:1006F0002A193B094C095D09298B3A8B4B8B5C8B82
:100700009B01AC0169897A898B899C890E940508C3
:10071000E418F50806091709A80197010E94430883
:100720002A0D3B1D4C1D5D1DB901CA01DF91CF9102
:100730001F910F91FF90EF90DF90CF90BF90AF90FF
:100740007F906F905F904F900895CF92DF92EF92DD
:10075000FF920F931F93CF93DF936C01EB017A010C
:10076000E60EF71E00E010E00BC06991D601ED9196
:10077000FC910190F081E02DC6010995080F191F29
:10078000CE15DF0591F7C801DF91CF911F910F9131
:10079000FF90EF90DF90CF900895DB010D90002047
:1007A000E9F7AD0141505109461B570BDC01ED91B2
:1007B000FC910280F381E02D0994DC01ED91FC9124
:1007C0000190F081E02D09940F931F93CF93DF9355
:1007D000EC016DE00E94DD038C016AE0CE010E9415
:1007E000DD039C01200F311FC901DF91CF911F91C3
:1007F0000F9108954F925F926F927F929F92AF9266
:10080000BF92CF92DF92EF92FF920F931F93CF93FD
:10081000DF93CDB7DEB7A1970FB6F894DEBF0FBE5A
:10082000CDBF5C016A017B01922E19A281E0821783
:1008300010F08AE0982E8E010F5D1F4F492C512C2D
:10084000612C712CC701B601A30192010E942108FD
:100850008C2D929E80191124015011098A3014F4B4
:10086000805D01C0895CF801808369017A01C1144F
:10087000D104E104F10431F7B801C5010E94CD03B0
:10088000A1960FB6F894DEBF0FBECDBFDF91CF911A
:100890001F910F91FF90EF90DF90CF90BF90AF909E
:1008A0009F907F906F905F904F900895CF92DF92CE
:1008B000EF92FF920F931F93CF93DF93EC016A01A6
:1008C0007B012115310579F4E881F9810190F081EE
:1008D000E02D642FDF91CF911F910F91FF90EF904A
:1008E000DF90CF9009942A30310519F477FD0EC0BE
:1008F0002AE0B701A601CE01DF91CF911F910F91A0
:10090000FF90EF90DF90CF900C94FA036DE20E947D
:10091000DD038C0144275527BA014C195D096E0986
:100920007F092AE0CE010E94FA03080F191FC801AF
:10093000DF91CF911F910F91FF90EF90DF90CF90BB
:1009400008950F931F93CF93DF93EC019A01AB01AE
:10095000662757FD6095762F0E9456048C01CE01C4
:100960000E94E4039801280F391FC901DF91CF913C
:100970001F910F9108950E94BF070E948800CFE445
:10098000D6E00E9496002097E1F30E944F06F9CF2F
:100990000F931F93CF93DF93EC010E94AD076887FD
:1009A00079878A879B87E881F9810084F185E02D2A
:1009B000CE0109959C0197FF15C00E94AD070885DF
:1009C00019852A853B85601B710B820B930B0C816B
:1009D0001D812E813F81601771078207930718F3ED
:1009E0002FEF3FEFC901DF91CF911F910F91089534
:1009F000CF93DF93EC01CE010E94C8049C0197FDC8
:100A00000EC08D32910559F0C0970A9740F0E881E9
:100A1000F9810680F781E02DCE010995ECCFC9015F
:100A2000DF91CF910895CF92DF92FF920F931F93A2
:100A3000CF93DF9300D000D0CDB7DEB76C01062F87
:100A40000E94F804FC0120E030E0A90197FD47C0B6
:100A5000F12C112707FD1095E017F107E9F0ED32B1
:100A6000F105C1F0CF01C0970A97B0F4AAE0B0E059
:100A70000E94FA079B01AC01CF01AA2797FDA09520
:100A8000BA2F280F391F4A1F5B1F20533109410914
:100A9000510902C0FF24F394D601ED91FC91068028
:100AA000F781E02DC60129833A834B835C83099546
:100AB000C6010E94C804FC01C09729813A814B817C
:100AC0005C810A9748F2E017F10731F2FF2039F014
:100AD00050954095309521953F4F4F4F5F4FB9014D
:100AE000CA010F900F900F900F90DF91CF911F913F
:100AF0000F91FF90DF90CF90089561E00C94130563
:100B0000FC0184859585FC01E05CFF4F20813181EB
:100B1000FC01EE5BFF4F80819181281B390B2F7305
:100B20003327C9010895FC0184859585FC01E05CAB
:100B3000FF4F40815181FC01EE5BFF4F20813181ED
:100B40004217530741F00190F081E02DE80FF91FA3
:100B5000208130E002C02FEF3FEFC9010895FC0172
:100B600084859585FC01E05CFF4F40815181FC014B
:100B7000EE5BFF4F208131814217530781F0A08146
:100B8000B181A80FB91F8C91208131812F5F3F4F18
:100B90002F73332731832083282F30E002C02FEFBB
:100BA0003FEFC9010895FC0186859785FC01E05C53
:100BB000FF4FDC01AE5BBF4F408151812D913C91D5
:100BC000119742175307C1F70895CF93DF93FC01A4
:100BD00086859785DC01A05CBF4F2D913C911197D4
:100BE0002F5F3F4F2F733327EC01CE5BDF4F4881E0
:100BF000598124173507D9F30D90BC91A02DA80F6A
:100C0000B91F6C93A685B785A05CBF4F11963C9326
:100C10002E93A689B7892C9181E090E0058C02C0C3
:100C2000880F991F0A94E2F7282B2C9381E090E01B
:100C3000DF91CF91089508951F920F920FB60F92F2
:100C400011242F933F934F938F939F93EF93FF9391
:100C50004091C6008091DC019091DD0101968F7377
:100C600099272091DE013091DF018217930759F017
:100C7000E091DC01F091DD01E456FE4F408390935A
:100C8000DD018093DC01FF91EF919F918F914F9156
:100C90003F912F910F900FBE0F901F90189589E3F1
:100CA00091E00E948005892B11F00C941B06089599
:100CB0001F920F920FB60F9211242F933F938F9391
:100CC0009F93EF93FF932091980130919901809128
:100CD0009A0190919B012817390731F48091C10046
:100CE0008F7D8093C10014C0E0919A01F0919B0127
:100CF000E85AFE4F208180919A0190919B010196C4
:100D00008F73992790939B0180939A012093C6003B
:100D1000FF91EF919F918F913F912F910F900FBE77
:100D20000F901F901895CF92DF92EF92FF92CF9382
:100D3000DF93EC016A017B01411581EE58076105E3
:100D40007105F9F0EC89FD8981E090E00E8C02C01C
:100D5000880F991F0A94E2F7808360E079E08DE3C1
:100D600090E0A70196010E94210821503109410914
:100D700051095695479537952795211580E13807F4
:100D800098F0EC89FD89108260E874E88EE190E0CB
:100D9000A70196010E9421082150310941095109FA
:100DA0005695479537952795E889F9893083EA89DB
:100DB000FB892083EE89FF89408181E090E09C01DE
:100DC0000A8C02C0220F331F0A94E2F7422B4083A1
:100DD000EE89FF8940819C010B8C02C0220F331FDA
:100DE0000A94E2F7422B4083EE89FF8940819C01FF
:100DF0000C8C02C0220F331F0A94E2F7422B40836F
:100E0000EE89FF8920810D8C02C0880F991F0A94FA
:100E1000E2F7809582238083DF91CF91FF90EF905E
:100E2000DF90CF90089510923C0110923B0188EE24
:100E300093E0A0E0B0E080933D0190933E01A09349
:100E40003F01B093400184E091E090933A01809398
:100E500039018CE991E0909346018093450188E542
:100E600091E0909348018093470185EC90E0909346
:100E70004A018093490184EC90E090934C01809367
:100E80004B0180EC90E090934E0180934D0181ECFA
:100E900090E09093500180934F0186EC90E0909306
:100EA00052018093510184E08093530183E0809349
:100EB000540187E08093550185E08093560181E0DD
:100EC0008093570108951F920F920FB60F9211242D
:100ED0002F933F938F939F93AF93BF938091E001A4
:100EE0009091E101A091E201B091E3013091E8011C
:100EF000232F2D5F2D3720F40196A11DB11D05C0B4
:100F0000232F2A570296A11DB11D2093E80180933B
:100F1000E0019093E101A093E201B093E30180919D
:100F2000E4019091E501A091E601B091E7010196FD
:100F3000A11DB11D8093E4019093E501A093E6010A
:100F4000B093E701BF91AF919F918F913F912F9106
:100F50000F900FBE0F901F9018950F931F938FB790
:100F6000F8940091E0011091E1012091E2013091AB
:100F7000E3018FBFB801C9011F910F9108957894C3
:100F800084B5826084BD84B5816084BD85B582608E
:100F900085BD85B5816085BDEEE6F0E0808181602C
:100FA0008083E1E8F0E0108280818260808380812C
:100FB00081608083E0E8F0E0808181608083E1EB04
:100FC000F0E0808184608083E0EBF0E080818160EC
:100FD0008083EAE7F0E080818460808380818260A2
:100FE000808380818160808380818068808310928B
:100FF000C10008950E945F08A59F900DB49F900DB9
:10100000A49F800D911D11240895DB018F939F9360
:101010000E94FA07BF91AF91A29F800D911DA39FDF
:10102000900DB29F900D11240895991B79E004C092
:10103000991F961708F0961B881F7A95C9F7809517
:101040000895A1E21A2EAA1BBB1BFD010DC0AA1F09
:10105000BB1FEE1FFF1FA217B307E407F50720F021
:10106000A21BB30BE40BF50B661F771F881F991F9C
:101070001A9469F760957095809590959B01AC01E5
:10108000BD01CF010895052E97FB16F4009407D0FB
:1010900057FD0DD00E94210807FC09D07EF49095E1
:1010A0008095709561957F4F8F4F9F4F0895509514
:1010B0004095309521953F4F4F4F5F4F0895A29F28
:1010C000B001B39FC001A39F01D0B29F700D811DDD
:1010D0001124911D0895EE0FFF1F0590F491E02D4E
:0610E0000994F894FFCF13
:1010E60000000000E505A5038005AF059305D305BF
:00000001FF
