:100000000C945E000C9486000C9486000C94860080
:100010000C9486000C9486000C9486000C94860048
:100020000C9486000C9486000C9486000C94FC00C2
:100030000C9486000C9486000C9486000C94860028
:100040000C9487030C9486000C940A050C944605C6
:100050000C9486000C9486000C9486000C94860008
:100060000C9486000C94860000000007000201003A
:100070000003040600000000000000000102040864
:100080001020408001020408102001020408102002
:10009000040404040404040402020202020203032E
:1000A0000303030300000000250028002B000000CC
:1000B0000000240027002A00F800010611241FBEBA
:1000C000CFEFD8E0DEBFCDBF11E0A0E0B1E0E8EEB9
:1000D000F1E102C005900D92A231B107D9F711E00C
:1000E000A2E1B1E001C01D92AB3EB107E1F710E023
:1000F000CCEBD0E004C02297FE010E94EE08C83B82
:10010000D107C9F70E9451060C94F2080C94000024
:1001100066E070E082E191E00E94570240E855E21B
:1001200060E070E084E491E00E94810561E08091EC
:1001300000010C9418030F931F93CF93DF934BC0D0
:1001400084E491E00E945A078B0140E150E084E48E
:1001500091E00E94590884E491E00E949D040A976E
:10016000D1F561E0809100010E94500364E670E0E7
:1001700080E090E00E940D0460E0809100010E9408
:10018000500384E491E00E949D04EC0140E150E0C2
:10019000B80184E491E00E94610840E150E0BE01B2
:1001A00084E491E00E946108C801053B110514F048
:1001B00084EB90E0EC0197FF02C0C0E0D0E0BE010C
:1001C00082E191E00E94900240E150E0BE0184E4AF
:1001D00091E00E94610884E491E00E946E04181688
:1001E00019060CF4ADCFDF91CF911F910F910895B7
:1001F00082E191E00C94BA011F920F920FB60F9218
:1002000011242F933F934F935F936F937F938F931B
:100210009F93AF93BF93EF93FF938091160187FF56
:1002200005C010928500109284001AC0209116011A
:10023000332727FD30958091150190E02817390765
:100240007CF480911601992787FD9095FC01EE0FB3
:10025000FF1FE80FF91FE95EFE4F808186FD37C062
:10026000809116018F5F809316012091160133272C
:1002700027FD30958091150190E028173907CCF5BE
:10028000809116018C30F4F134C0809116019927C9
:1002900087FD9095FC01EE0FFF1FE80FF91FE95E47
:1002A000FE4F808161E08F730E94500352C080E452
:1002B0009CE905C0809184009091850004969093FC
:1002C0008900809388008FEF8093160142C080914F
:1002D0001601992787FD9095FC01EE0FFF1FE80F8F
:1002E000F91FE95EFE4F808160E08F730E9450032A
:1002F000B7CF8091840090918500049680349C490A
:10030000B0F2D8CF809184009091850020911601A1
:10031000332727FD3095F901EE0FFF1FE20FF31F82
:10032000E95EFE4F21813281820F931F90938900F5
:100330008093880080911601992787FD9095FC0194
:10034000EE0FFF1FE80FF91FE95EFE4F808186FD6B
:100350009CCFFF91EF91BF91AF919F918F917F9132
:100360006F915F914F913F912F910F900FBE0F9022
:100370001F901895209115012C30A0F4FC012083CA
:10038000822F8F5F80931501822F90E0FC01EE0F8A
:10039000FF1FE80FF91FE95EFE4F88EB9BE0928399
:1003A000818308952FEFFC0120830895DF92EF925F
:1003B000FF920F931F93CF93DF93EC01D62E7A0118
:1003C000890188818C3008F065C061E08D2D0E9424
:1003D00018038881A82FB0E0FD01EE0FFF1FEA0F80
:1003E000FB1FE95EFE4F2D2D2F739081907C922B89
:1003F000908360E272E06E197F0977FF02C06D5F43
:100400007F4F7595679575956795698340E659E0C7
:10041000401B510B57FF02C04D5F5F4F55954795ED
:10042000559547954A836CE00E9496089CE0899F09
:10043000B001112420E030E0A901460F571FFA0156
:10044000EE0FFF1FE40FF51FE95EFE4F908196FD52
:1004500015C02F5F3F4F2C30310571F71DC0109232
:10046000800082E0809381001092850010928400C9
:10047000B19A80916F00826080936F00888190E0D4
:10048000FC01EE0FFF1FE80FF91FE95EFE4F8081B0
:1004900080648083888103C0882309F3EFCFDF91D4
:1004A000CF911F910F91FF90EF90DF90089520E67C
:1004B00039E040E252E00C94D601FC0180818C309E
:1004C00070F5918128E830E0291B310997FD3395BB
:1004D000220F331F220F331F621773077CF09281A4
:1004E00028E532E0291B310997FD3395220F331F90
:1004F000220F331F621773070CF49B014FB7F89458
:1005000090E0FC01EE0FFF1FE80FF91FE95EFE4FC0
:1005100022503109220F331F328321834FBF0895A8
:10052000AF92BF92CF92DF92EF92FF920F931F9301
:10053000CF93DF93EC01603282E078070CF041C08A
:1005400077FD04C0653B710524F405C060E070E0F0
:1005500002C064EB70E0298188E890E0821B910979
:1005600027FD9395880F991F880F991F5C01CC2454
:10057000B7FCC094DC2C882777FD8095982F2A81C2
:1005800048E552E0421B510927FD5395440F551F82
:10059000440F551F8A01222717FD2095322F3F93C4
:1005A0002F931F930F9314EBE12EF12C00E010E03A
:1005B00020E030E0A9010E945E060F900F900F909E
:1005C0000F90CE01DF91CF911F910F91FF90EF908F
:1005D000DF90CF90BF90AF900C945D02833069F0B4
:1005E00028F48130A1F0823011F514C08630B1F0CA
:1005F0008730C1F08430D9F404C0809180008F77B7
:1006000003C0809180008F7D80938000089584B521
:100610008F7702C084B58F7D84BD08958091B0002E
:100620008F7703C08091B0008F7D8093B0000895D4
:10063000CF93DF9390E0FC01E458FF4F4491FC011D
:10064000E057FF4F8491882341F190E0880F991F74
:10065000FC01E255FF4F25913491D9018C559F4FF4
:10066000FC0185919491C82FD92F9FB7F8948C9154
:10067000611106C0409584238C938881842308C02F
:10068000623041F4242F209582238C938881842B1F
:10069000888302C0842B8C939FBFDF91CF910895F4
:1006A0000F931F93CF93DF931F92CDB7DEB7282F01
:1006B00030E0F901E859FF4F8491F901E458FF4F08
:1006C0001491F901E057FF4F04910023D1F08823E2
:1006D00021F069830E94EE026981E02FF0E0EE0FC5
:1006E000FF1FEC55FF4F85919491DC019FB7F89463
:1006F0008C91611103C01095812301C0812B8C93D3
:100700009FBF0F90DF91CF911F910F9108951F927E
:100710000F920FB60F9211242F933F938F939F93B5
:10072000AF93BF9380913B0190913C01A0913D011B
:10073000B0913E0130914301232F2D5F2D3720F4DE
:100740000196A11DB11D05C0232F2A570296A11D98
:10075000B11D2093430180933B0190933C01A093F2
:100760003D01B0933E0180913F0190914001A091E5
:100770004101B09142010196A11DB11D80933F013D
:1007800090934001A0934101B0934201BF91AF917A
:100790009F918F913F912F910F900FBE0F901F90BF
:1007A00018950F931F938FB7F89400913B01109108
:1007B0003C0120913D0130913E018FBFB801C9013C
:1007C0001F910F9108950F931F939FB7F894009175
:1007D0003F0110914001209141013091420186B5C5
:1007E000A89B06C08F3F21F00F5F1F4F2F4F3F4F39
:1007F0009FBF322F212F102F0027080F111D211D01
:10080000311D42E0000F111F221F331F4A95D1F7FF
:10081000B801C9011F910F910895CF92DF92EF9215
:10082000FF92CF93DF936B017C010E94E303EB0106
:100830000EC00E94E3036C1B7D0B683E734038F0D2
:1008400081E0C81AD108E108F108C851DC4FC11491
:10085000D104E104F10469F7DF91CF91FF90EF90AB
:10086000DF90CF900895789484B5826084BD84B57C
:10087000816084BD85B5826085BD85B5816085BD9B
:10088000EEE6F0E0808181608083E1E8F0E01082B4
:10089000808182608083808181608083E0E8F0E0F5
:1008A000808181608083E1EBF0E0808184608083DF
:1008B000E0EBF0E0808181608083EAE7F0E0808116
:1008C0008460808380818260808380818160808376
:1008D0008081806880831092C1000895FC01848526
:1008E0009585FC01E05CFF4F20813181FC01EE5BCE
:1008F000FF4F80819181281B390B2F733327C9014A
:100900000895FC0184859585FC01E05CFF4F4081E2
:100910005181FC01EE5BFF4F20813181421753076B
:1009200041F00190F081E02DE80FF91F208130E0C7
:1009300002C02FEF3FEFC9010895FC018485958522
:10094000FC01E05CFF4F40815181FC01EE5BFF4FF9
:10095000208131814217530781F0A081B181A80F16
:10096000B91F8C91208131812F5F3F4F2F73332727
:1009700031832083282F30E002C02FEF3FEFC901E1
:100980000895FC0186859785FC01E05CFF4FDC0142
:10099000AE5BBF4F408151812D913C911197421721
:1009A0005307C1F70895CF93DF93FC0186859785A0
:1009B000DC01A05CBF4F2D913C9111972F5F3F4F01
:1009C0002F733327EC01CE5BDF4F48815981241709
:1009D0003507D9F30D90BC91A02DA80FB91F6C93CA
:1009E000A685B785A05CBF4F11963C932E93A68930
:1009F000B7892C9181E090E0058C02C0880F991F87
:100A00000A94E2F7282B2C9381E090E0DF91CF91BC
:100A1000089508951F920F920FB60F9211242F93ED
:100A20003F934F938F939F93EF93FF934091C60013
:100A30008091E7019091E80101968F7399272091A9
:100A4000E9013091EA018217930759F0E091E7013B
:100A5000F091E801E955FE4F40839093E8018093BF
:100A6000E701FF91EF919F918F914F913F912F91CE
:100A70000F900FBE0F901F90189584E491E00E9494
:100A80006E04892B11F00C94090508951F920F92A2
:100A90000FB60F9211242F933F938F939F93EF9351
:100AA000FF932091A3013091A4018091A501909121
:100AB000A6012817390731F48091C1008F7D8093FA
:100AC000C10014C0E091A501F091A601ED59FE4FBF
:100AD00020818091A5019091A60101968F7399279D
:100AE0009093A6018093A5012093C600FF91EF91FA
:100AF0009F918F913F912F910F900FBE0F901F905C
:100B00001895CF92DF92EF92FF92CF93DF93EC0193
:100B10006A017B01411581EE580761057105F9F005
:100B2000EC89FD8981E090E00E8C02C0880F991F4E
:100B30000A94E2F7808360E079E08DE390E0A7011A
:100B400096010E94A2082150310941095109569588
:100B5000479537952795211580E1380798F0EC895E
:100B6000FD89108260E874E88EE190E0A7019601AB
:100B70000E94A20821503109410951095695479513
:100B800037952795E889F9893083EA89FB8920839D
:100B9000EE89FF89408181E090E09C010A8C02C0CF
:100BA000220F331F0A94E2F7422B4083EE89FF891C
:100BB00040819C010B8C02C0220F331F0A94E2F784
:100BC000422B4083EE89FF8940819C010C8C02C03E
:100BD000220F331F0A94E2F7422B4083EE89FF89EC
:100BE00020810D8C02C0880F991F0A94E2F780952E
:100BF00082238083DF91CF91FF90EF90DF90CF90A1
:100C00000895109247011092460188EE93E0A0E00B
:100C1000B0E08093480190934901A0934A01B093BA
:100C20004B0186E091E0909345018093440187EA6F
:100C300091E0909351018093500183E691E090936D
:100C400053018093520185EC90E09093550180937D
:100C5000540184EC90E0909357018093560180EC0E
:100C600090E0909359018093580181EC90E090932B
:100C70005B0180935A0186EC90E090935D01809334
:100C80005C0184E080935E0183E080935F0187E0F4
:100C90008093600185E08093610181E0809362012F
:100CA00008950E9433040E948800CDE3D5E00E949D
:100CB0009B002097E1F30E943D05F9CF4F925F9290
:100CC0006F927F92AF92BF92CF92DF92EF92FF929C
:100CD0000F931F93CF93DF93CDB7DEB729013A016E
:100CE000621B730B840B950B29893A894B895C89AC
:100CF0002A193B094C095D09298B3A8B4B8B5C8B7C
:100D00009B01AC0169897A898B899C890E9486083C
:100D1000E418F50806091709A80197010E94C408FC
:100D20002A0D3B1D4C1D5D1DB901CA01DF91CF91FC
:100D30001F910F91FF90EF90DF90CF90BF90AF90F9
:100D40007F906F905F904F9008950F931F93CF9374
:100D5000DF93EC010E94D103688779878A879B879C
:100D6000E881F9810084F185E02DCE0109959C018F
:100D700097FF15C00E94D103088519852A853B85F8
:100D8000601B710B820B930B0C811D812E813F81A7
:100D9000601771078207930718F32FEF3FEFC90120
:100DA000DF91CF911F910F910895CF93DF93EC01C5
:100DB000CE010E94A5069C0197FD0EC08D329105C3
:100DC00059F0C0970A9740F0E881F9810680F781D1
:100DD000E02DCE010995ECCFC901DF91CF910895A7
:100DE000CF92DF92FF920F931F93CF93DF9300D0A8
:100DF00000D0CDB7DEB76C01062F0E94D506FC01EE
:100E000020E030E0A90197FD47C0F12C112707FD34
:100E10001095E017F107E9F0ED32F105C1F0CF01CF
:100E2000C0970A97B0F4AAE0B0E00E947B089B014B
:100E3000AC01CF01AA2797FDA095BA2F280F391F23
:100E40004A1F5B1F205331094109510902C0FF2489
:100E5000F394D601ED91FC910680F781E02DC60157
:100E600029833A834B835C830995C6010E94A506BA
:100E7000FC01C09729813A814B815C810A9748F235
:100E8000E017F10731F2FF2039F050954095309589
:100E900021953F4F4F4F5F4FB901CA010F900F90FF
:100EA0000F900F90DF91CF911F910F91FF90DF90E6
:100EB000CF90089561E00C94F006CF92DF92EF920C
:100EC000FF920F931F93CF93DF936C01EB017A0195
:100ED000E60EF71E00E010E00BC06991D601ED911F
:100EE000FC910190F081E02DC6010995080F191FB2
:100EF000CE15DF0591F7C801DF91CF911F910F91BA
:100F0000FF90EF90DF90CF900895DB010D900020CF
:100F1000E9F7AD0141505109461B570BDC01ED913A
:100F2000FC910280F381E02D0994DC01ED91FC91AC
:100F30000190F081E02D09940F931F93CF93DF93DD
:100F4000EC016DE00E9495078C016AE0CE010E94E1
:100F500095079C01200F311FC901DF91CF911F918F
:100F60000F9108954F925F926F927F929F92AF92EE
:100F7000BF92CF92DF92EF92FF920F931F93CF9386
:100F8000DF93CDB7DEB7A1970FB6F894DEBF0FBEE3
:100F9000CDBF5C016A017B01922E19A281E082170C
:100FA00010F08AE0982E8E010F5D1F4F492C512CB6
:100FB000612C712CC701B601A30192010E94A20805
:100FC0008C2D929E80191124015011098A3014F43D
:100FD000805D01C0895CF801808369017A01C114D8
:100FE000D104E104F10431F7B801C5010E9485077D
:100FF000A1960FB6F894DEBF0FBECDBFDF91CF91A3
:101000001F910F91FF90EF90DF90CF90BF90AF9026
:101010009F907F906F905F904F900895CF92DF9256
:10102000EF92FF920F931F93CF93DF93EC016A012E
:101030007B012115310579F4E881F9810190F08176
:10104000E02D642FDF91CF911F910F91FF90EF90D2
:10105000DF90CF9009942A30310519F477FD0EC046
:101060002AE0B701A601CE01DF91CF911F910F9128
:10107000FF90EF90DF90CF900C94B2076DE20E944A
:1010800095078C0144275527BA014C195D096E0953
:101090007F092AE0CE010E94B207080F191FC8017C
:1010A000DF91CF911F910F91FF90EF90DF90CF9044
:1010B00008959A01AB01662757FD6095762F0C9431
:1010C0000E080F931F93CF93DF93EC019A01AB01AE
:1010D000662757FD6095762F0E940E088C01CE0181
:1010E0000E949C079801280F391FC901DF91CF91F9
:1010F0001F910F9108950E94E008A59F900DB49F45
:10110000900DA49F800D911D11240895DB018F93F4
:101110009F930E947B08BF91AF91A29F800D911D6C
:10112000A39F900DB29F900D11240895991B79E013
:1011300004C0991F961708F0961B881F7A95C9F767
:1011400080950895A1E21A2EAA1BBB1BFD010DC0BC
:10115000AA1FBB1FEE1FFF1FA217B307E407F50767
:1011600020F0A21BB30BE40BF50B661F771F881F43
:10117000991F1A9469F760957095809590959B01D9
:10118000AC01BD01CF010895052E97FB16F4009424
:1011900007D057FD0DD00E94A20807FC09D07EF4AD
:1011A00090958095709561957F4F8F4F9F4F0895D3
:1011B00050954095309521953F4F4F4F5F4F089583
:1011C000A29FB001B39FC001A39F01D0B29F700D39
:1011D000811D1124911D0895EE0FFF1F0590F491BC
:0811E000E02D0994F894FFCF03
:1011E8000D0000000000D3045D076E049D04810417
:0211F800C10430
:00000001FF
