:100000000C945D000C9485000C9485000C94850084
:100010000C9485000C9485000C9485000C9485004C
:100020000C9485000C9485000C9485000C94CD00F4
:100030000C9485000C9485000C9485000C9485002C
:100040000C9458030C9485000C9485000C94850046
:100050000C9485000C9485000C9485000C9485000C
:100060000C9485000C94850000000007000201003C
:100070000003040600000000000000000102040864
:100080001020408001020408102001020408102002
:10009000040404040404040402020202020203032E
:1000A0000303030300000000250028002B000000CC
:1000B0000000240027002A00C90011241FBECFEF32
:1000C000D8E0DEBFCDBF11E0A0E0B1E001C01D92DD
:1000D000A433B107E1F711E0A0E0B1E0E4EFF9E00B
:1000E00002C005900D92A030B107D9F710E0CAEB1D
:1000F000D0E004C02297FE010E94E804C83BD1076B
:10010000C9F70E9474040C94F8040C9400006AE08F
:1001100070E082E091E00C942802109201011092AC
:10012000000113C082E091E00E9461026FE070E084
:1001300080E090E00E94CC03809100019091010149
:1001400001969093010180930001609100017091EC
:100150000101653B710534F384EB90E00FC082E050
:1001600091E00E9461026FE070E080E090E00E9408
:10017000CC038091000190910101019790930101BE
:1001800080930001609100017091010177FFE7CF3A
:10019000089582E091E00C948B011F920F920FB6AC
:1001A0000F9211242F933F934F935F936F937F93FD
:1001B0008F939F93AF93BF93EF93FF93809106012B
:1001C00087FF05C010928500109284001AC020910C
:1001D0000601332727FD30958091050190E028170F
:1001E00039077CF480910601992787FD9095FC01E1
:1001F000EE0FFF1FE80FF91FE95FFE4F808186FDBC
:1002000037C0809106018F5F80930601209106011F
:10021000332727FD30958091050190E02817390795
:10022000CCF5809106018C30F4F134C08091060148
:10023000992787FD9095FC01EE0FFF1FE80FF91F2E
:10024000E95FFE4F808161E08F730E94210352C0FD
:1002500080E49CE905C0809184009091850004961B
:1002600090938900809388008FEF8093060142C0AD
:1002700080910601992787FD9095FC01EE0FFF1FE5
:10028000E80FF91FE95FFE4F808160E08F730E94E5
:100290002103B7CF8091840090918500049680342B
:1002A0009C49B0F2D8CF8091840090918500209134
:1002B0000601332727FD3095F901EE0FFF1FE20FEE
:1002C000F31FE95FFE4F21813281820F931F9093CC
:1002D00089008093880080910601992787FD909579
:1002E000FC01EE0FFF1FE80FF91FE95FFE4F808151
:1002F00086FD9CCFFF91EF91BF91AF919F918F9120
:100300007F916F915F914F913F912F910F900FBE11
:100310000F901F901895209105012C30A0F4FC013E
:100320002083822F8F5F80930501822F90E0FC0154
:10033000EE0FFF1FE80FF91FE95FFE4F88EB9BE010
:100340009283818308952FEFFC0120830895DF922B
:10035000EF92FF920F931F93CF93DF93EC01D62E72
:100360007A01890188818C3008F065C061E08D2DAB
:100370000E94E9028881A82FB0E0FD01EE0FFF1F67
:10038000EA0FFB1FE95FFE4F2D2D2F739081907CAC
:10039000922B908360E272E06E197F0977FF02C0B2
:1003A0006D5F7F4F7595679575956795698340E695
:1003B00059E0401B510B57FF02C04D5F5F4F5595F1
:1003C0004795559547954A836CE00E9491049CE0BF
:1003D000899FB001112420E030E0A901460F571F8A
:1003E000FA01EE0FFF1FE40FF51FE95FFE4F90814A
:1003F00096FD15C02F5F3F4F2C30310571F71DC0A2
:100400001092800082E0809381001092850010920B
:100410008400B19A80916F00826080936F00888120
:1004200090E0FC01EE0FFF1FE80FF91FE95FFE4FA0
:10043000808180648083888103C0882309F3EFCFA3
:10044000DF91CF911F910F91FF90EF90DF90089572
:1004500020E639E040E252E00C94A701FC018081E3
:100460008C3070F5918128E830E0291B310997FD27
:100470003395220F331F220F331F621773077CF04F
:10048000928128E532E0291B310997FD3395220F2F
:10049000331F220F331F621773070CF49B014FB7F2
:1004A000F89490E0FC01EE0FFF1FE80FF91FE95FE1
:1004B000FE4F22503109220F331F328321834FBF59
:1004C0000895AF92BF92CF92DF92EF92FF920F9377
:1004D0001F93CF93DF93EC01603282E078070CF03A
:1004E00041C077FD04C0653B710524F405C060E0A0
:1004F00070E002C064EB70E0298188E890E0821B24
:10050000910927FD9395880F991F880F991F5C010A
:10051000CC24B7FCC094DC2C882777FD8095982FDD
:100520002A8148E552E0421B510927FD5395440FAB
:10053000551F440F551F8A01222717FD2095322F82
:100540003F932F931F930F9314EBE12EF12C00E0B8
:1005500010E020E030E0A9010E942D040F900F90E0
:100560000F900F90CE01DF91CF911F910F91FF90CF
:10057000EF90DF90CF90BF90AF900C942E0283301D
:1005800069F028F48130A1F0823011F514C0863072
:10059000B1F08730C1F08430D9F404C0809180007C
:1005A0008F7703C0809180008F7D809380000895B5
:1005B00084B58F7702C084B58F7D84BD0895809106
:1005C000B0008F7703C08091B0008F7D8093B00022
:1005D0000895CF93DF9390E0FC01E458FF4F4491DE
:1005E000FC01E057FF4F8491882341F190E0880F90
:1005F000991FFC01E255FF4F25913491D9018C558B
:100600009F4FFC0185919491C82FD92F9FB7F894E3
:100610008C91611106C0409584238C93888184233A
:1006200008C0623041F4242F209582238C93888166
:10063000842B888302C0842B8C939FBFDF91CF9142
:1006400008950F931F93CF93DF931F92CDB7DEB71B
:10065000282F30E0F901E859FF4F8491F901E4585F
:10066000FF4F1491F901E057FF4F04910023D1F09F
:10067000882321F069830E94BF026981E02FF0E0A6
:10068000EE0FFF1FEC55FF4F85919491DC019FB752
:10069000F8948C91611103C01095812301C0812BC6
:1006A0008C939FBF0F90DF91CF911F910F91089571
:1006B0001F920F920FB60F9211242F933F938F9397
:1006C0009F93AF93BF9380912B0190912C01A091A8
:1006D0002D01B0912E0130913301232F2D5F2D3745
:1006E00020F40196A11DB11D05C0232F2A570296A3
:1006F000A11DB11D2093330180932B0190932C01F8
:10070000A0932D01B0932E0180912F019091300183
:10071000A0913101B09132010196A11DB11D8093CC
:100720002F0190933001A0933101B0933201BF911A
:10073000AF919F918F913F912F910F900FBE0F908E
:100740001F9018950F931F939FB7F89400912F0156
:1007500010913001209131013091320186B5A89B72
:1007600006C08F3F21F00F5F1F4F2F4F3F4F9FBF9E
:10077000322F212F102F0027080F111D211D311D91
:1007800042E0000F111F221F331F4A95D1F7B80115
:10079000C9011F910F910895CF92DF92EF92FF92BE
:1007A000CF93DF936B017C010E94A203EB010EC08B
:1007B0000E94A2036C1B7D0B683E734038F081E001
:1007C000C81AD108E108F108C851DC4FC114D1049E
:1007D000E104F10469F7DF91CF91FF90EF90DF9092
:1007E000CF900895789484B5826084BD84B581608B
:1007F00084BD85B5826085BD85B5816085BDEEE629
:10080000F0E0808181608083E1E8F0E01082808107
:1008100082608083808181608083E0E8F0E0808175
:1008200081608083E1EBF0E0808184608083E0EB95
:10083000F0E0808181608083EAE7F0E0808184607D
:1008400080838081826080838081816080838081D9
:10085000806880831092C10008954F925F926F92DA
:100860007F92AF92BF92CF92DF92EF92FF920F935F
:100870001F93CF93DF93CDB7DEB729013A01621BF7
:10088000730B840B950B29893A894B895C892A194A
:100890003B094C095D09298B3A8B4B8B5C8B9B0187
:1008A000AC0169897A898B899C890E948104E4184A
:1008B000F50806091709A80197010E949D042A0D51
:1008C0003B1D4C1D5D1DB901CA01DF91CF911F91E8
:1008D0000F91FF90EF90DF90CF90BF90AF907F90FF
:1008E0006F905F904F9008950E94F2030E948700DE
:1008F000C0E0D0E00E948D002097E1F30E9400004C
:10090000F9CFDB018F939F930E94B904BF91AF9100
:10091000A29F800D911DA39F900DB29F900D112459
:100920000895991B79E004C0991F961708F0961B4B
:10093000881F7A95C9F780950895052E97FB16F4C0
:10094000009407D057FD0DD00E94C40407FC09D0C5
:100950007EF490958095709561957F4F8F4F9F4F56
:10096000089550954095309521953F4F4F4F5F4FDB
:1009700008950E94EC04A59F900DB49F900DA49F34
:10098000800D911D11240895A1E21A2EAA1BBB1BF4
:10099000FD010DC0AA1FBB1FEE1FFF1FA217B3074B
:1009A000E407F50720F0A21BB30BE40BF50B661F61
:1009B000771F881F991F1A9469F760957095809525
:1009C00090959B01AC01BD01CF010895EE0FFF1F73
:1009D0000590F491E02D0994A29FB001B39FC0014E
:1009E000A39F01D0B29F700D811D1124911D089508
:0409F000F894FFCFA9
:00000001FF
