:100000000C945D000C9485000C9485000C94850084
:100010000C9485000C9485000C9485000C9485004C
:100020000C9485000C9485000C9485000C9485003C
:100030000C9485000C9485000C9485000C9485002C
:100040000C9455010C9485000C94C1030C94FD0391
:100050000C9485000C9485000C9485000C9485000C
:100060000C9485000C94850000000007000201003C
:100070000003040600000000000000000102040864
:100080001020408001020408102001020408102002
:10009000040404040404040402020202020203032E
:1000A0000303030300000000250028002B000000CC
:1000B0000000240027002A00B80411241FBECFEF3F
:1000C000D8E0DEBFCDBF11E0A0E0B1E0E4E6FAE0A9
:1000D00002C005900D92A231B107D9F711E0A2E15B
:1000E000B1E001C01D92A43CB107E1F710E0CAEBFA
:1000F000D0E004C02297FE010E942C05C83BD10726
:10010000C9F70E9418030C9430050C94000040E8D5
:1001100055E260E070E08DE191E00E94380461E01A
:10012000809100010C94E6001FC08DE191E00E94D7
:10013000540390931301809312014AE050E0BC01F4
:100140008DE191E00E94100361E0809100010E9426
:100150001E0164E670E080E090E00E94C90160E06A
:10016000809100010E941E018DE191E00E94250313
:1001700018161906D4F20895833069F028F48130F6
:10018000A1F0823011F514C08630B1F08730C1F093
:100190008430D9F404C0809180008F7703C08091AF
:1001A00080008F7D80938000089584B58F7702C092
:1001B00084B58F7D84BD08958091B0008F7703C092
:1001C0008091B0008F7D8093B0000895CF93DF932E
:1001D00090E0FC01E458FF4F4491FC01E057FF4FD1
:1001E0008491882341F190E0880F991FFC01E2552A
:1001F000FF4F25913491D9018C559F4FFC0185917A
:100200009491C82FD92F9FB7F8948C91611106C093
:10021000409584238C938881842308C0623041F404
:10022000242F209582238C938881842B888302C07D
:10023000842B8C939FBFDF91CF9108950F931F93D1
:10024000CF93DF931F92CDB7DEB7282F30E0F901AF
:10025000E859FF4F8491F901E458FF4F1491F901D7
:10026000E057FF4F04910023D1F0882321F06983E8
:100270000E94BC006981E02FF0E0EE0FFF1FEC55FB
:10028000FF4F85919491DC019FB7F8948C91611197
:1002900003C01095812301C0812B8C939FBF0F90C9
:1002A000DF91CF911F910F9108951F920F920FB67A
:1002B0000F9211242F933F938F939F93AF93BF93EC
:1002C0008091140190911501A0911601B091170130
:1002D00030911C01232F2D5F2D3720F40196A11D95
:1002E000B11D05C0232F2A570296A11DB11D2093D1
:1002F0001C018093140190931501A0931601B093F3
:1003000017018091180190911901A0911A01B091E3
:100310001B010196A11DB11D809318019093190135
:10032000A0931A01B0931B01BF91AF919F918F9140
:100330003F912F910F900FBE0F901F9018950F9324
:100340001F939FB7F8940091180110911901209103
:100350001A0130911B0186B5A89B06C08F3F21F082
:100360000F5F1F4F2F4F3F4F9FBF322F212F102F57
:100370000027080F111D211D311D42E0000F111F24
:10038000221F331F4A95D1F7B801C9011F910F9160
:100390000895CF92DF92EF92FF92CF93DF936B019C
:1003A0007C010E949F01EB010EC00E949F016C1B0B
:1003B0007D0B683E734038F081E0C81AD108E1082F
:1003C000F108C851DC4FC114D104E104F10469F70C
:1003D000DF91CF91FF90EF90DF90CF9008957894C8
:1003E00084B5826084BD84B5816084BD85B582603A
:1003F00085BD85B5816085BDEEE6F0E080818160D8
:100400008083E1E8F0E010828081826080838081D7
:1004100081608083E0E8F0E0808181608083E1EBAF
:10042000F0E0808184608083E0EBF0E08081816097
:100430008083EAE7F0E0808184608083808182604D
:100440008083808181608083808180688083109236
:10045000C1000895CF92DF92EF92FF920F931F9306
:10046000CF93DF936C01EB017A01E60EF71E00E0FB
:1004700010E00BC06991D601ED91FC910190F081E3
:10048000E02DC6010995080F191FCE15DF0591F75C
:10049000C801DF91CF911F910F91FF90EF90DF90F6
:1004A000CF900895DB010D900020E9F7AD01415098
:1004B0005109461B570BDC01ED91FC910280F38141
:1004C000E02D0994DC01ED91FC910190F081E02D8B
:1004D00009944F925F926F927F929F92AF92BF92D8
:1004E000CF92DF92EF92FF920F931F93CF93DF9300
:1004F000CDB7DEB7A1970FB6F894DEBF0FBECDBF64
:100500005C016A017B01922E19A281E0821710F032
:100510008AE0982E8E010F5D1F4F492C512C612CC3
:10052000712CC701B601A30192010E9408058C2D10
:10053000929E80191124015011098A3014F4805DB3
:1005400001C0895CF801808369017A01C114D1047A
:10055000E104F10431F7B801C5010E945202A196ED
:100560000FB6F894DEBF0FBECDBFDF91CF911F91C4
:100570000F91FF90EF90DF90CF90BF90AF909F9042
:100580007F906F905F904F900895CF92DF92EF929F
:10059000FF920F931F93CF93DF93EC016A017B01CE
:1005A0002115310579F4E881F9810190F081E02D80
:1005B000642FDF91CF911F910F91FF90EF90DF900B
:1005C000CF9009942A30310519F477FD0EC02AE046
:1005D000B701A601CE01DF91CF911F910F91FF903E
:1005E000EF90DF90CF900C9469026DE20E9462025E
:1005F0008C0144275527BA014C195D096E097F0902
:100600002AE0CE010E946902080F191FC801DF917C
:10061000CF911F910F91FF90EF90DF90CF900895B1
:100620009A01AB01662757FD6095762F0C94C502A1
:100630000E94EF010E948700C4EFD3E00E94940063
:100640002097E1F30E94F403F9CFFC01848595859E
:10065000FC01E05CFF4F20813181FC01EE5BFF4F2C
:1006600080819181281B390B2F733327C90108958D
:10067000FC0184859585FC01E05CFF4F4081518140
:10068000FC01EE5BFF4F208131814217530741F09F
:100690000190F081E02DE80FF91F208130E002C0C9
:1006A0002FEF3FEFC9010895FC0184859585FC017A
:1006B000E05CFF4F40815181FC01EE5BFF4F2081E8
:1006C00031814217530781F0A081B181A80FB91F72
:1006D0008C91208131812F5F3F4F2F7333273183DE
:1006E0002083282F30E002C02FEF3FEFC90108958B
:1006F000FC0186859785FC01E05CFF4FDC01AE5B69
:10070000BF4F408151812D913C9111974217530762
:10071000C1F70895CF93DF93FC0186859785DC01AF
:10072000A05CBF4F2D913C9111972F5F3F4F2F73CE
:100730003327EC01CE5BDF4F488159812417350701
:10074000D9F30D90BC91A02DA80FB91F6C93A6856D
:10075000B785A05CBF4F11963C932E93A689B789AD
:100760002C9181E090E0058C02C0880F991F0A94BB
:10077000E2F7282B2C9381E090E0DF91CF91089550
:1007800008951F920F920FB60F9211242F933F934B
:100790004F938F939F93EF93FF934091C600809167
:1007A000C0019091C10101968F7399272091C201D8
:1007B0003091C3018217930759F0E091C001F09185
:1007C000C101E058FE4F40839093C1018093C00166
:1007D000FF91EF919F918F914F913F912F910F90AA
:1007E0000FBE0F901F9018958DE191E00E94250398
:1007F000892B11F00C94C00308951F920F920FB62D
:100800000F9211242F933F938F939F93EF93FF9316
:1008100020917C0130917D0180917E0190917F013A
:100820002817390731F48091C1008F7D8093C10072
:1008300014C0E0917E01F0917F01E45CFE4F2081C5
:1008400080917E0190917F0101968F7399279093FB
:100850007F0180937E012093C600FF91EF919F91CD
:100860008F913F912F910F900FBE0F901F90189571
:10087000CF92DF92EF92FF92CF93DF93EC016A0168
:100880007B01411581EE580761057105F9F0EC898E
:10089000FD8981E090E00E8C02C0880F991F0A94B8
:1008A000E2F7808360E079E08DE390E0A7019601B4
:1008B0000E94080521503109410951095695479573
:1008C00037952795211580E1380798F0EC89FD8947
:1008D000108260E874E88EE190E0A70196010E9422
:1008E0000805215031094109510956954795379519
:1008F0002795E889F9893083EA89FB892083EE8985
:10090000FF89408181E090E09C010A8C02C0220FA7
:10091000331F0A94E2F7422B4083EE89FF8940811E
:100920009C010B8C02C0220F331F0A94E2F7422B6A
:100930004083EE89FF8940819C010C8C02C0220F0C
:10094000331F0A94E2F7422B4083EE89FF8920810E
:100950000D8C02C0880F991F0A94E2F780958223BC
:100960008083DF91CF91FF90EF90DF90CF9008953B
:100970001092200110921F0188EE93E0A0E0B0E0F9
:100980008093210190932201A0932301B09324012D
:1009900086E091E090931E0180931D0180E891E034
:1009A00090932A01809329018CE391E090932C018C
:1009B00080932B0185EC90E090932E0180932D0184
:1009C00084EC90E09093300180932F0180EC90E0D4
:1009D000909332018093310181EC90E09093340147
:1009E0008093330186EC90E090933601809335013B
:1009F00084E08093370183E08093380187E080931F
:100A0000390185E080933A0181E080933B010895AC
:100A1000A1E21A2EAA1BBB1BFD010DC0AA1FBB1F02
:100A2000EE1FFF1FA217B307E407F50720F0A21B74
:100A3000B30BE40BF50B661F771F881F991F1A94E1
:100A400069F760957095809590959B01AC01BD010B
:100A5000CF010895EE0FFF1F0590F491E02D09944A
:040A6000F894FFCF38
:100A64000D00000000008A032A0225035403380302
:020A7400780305
:00000001FF
